:100000000C94B6080C94DE080C94DE080C94DE0800
:100010000C94DE080C94DE080C94DE080C94DE08C8
:100020000C94DE080C94DE080C94F01C0C945F1DFC
:100030000C94DE080C94DE080C94DE080C94DE08A8
:100040000C94DE080C94DE080C94DE080C94DE0898
:100050000C94DE080C94DE080C94DE080C94911FBE
:100060000C94DE080C94DE080C94DE080C94DE0878
:100070000C94DE080C94DE080C94DE080C94DE0868
:100080000C94DE080C94DE080C94DE080C94DE0858
:100090000C94DE080C94DE080C94DE080C94DE0848
:1000A0000C94DE080C94DE080C94DE08474F4C4993
:1000B00041544820484153205345454E0A544F4F20
:1000C000204D414E5920494E4E4F43454E54530A00
:1000D000485552542E2054484953204749414E54C4
:1000E0000A57494C4C20435255534820414E592001
:1000F00047414E470A494E204849532050415448F1
:100100002E0043494E444552275320484F4D452029
:100110005741530A4255524E4544204259204741C7
:100120004E47532E0A57495448204E4F5448494E83
:1001300047204C4546542C0A484520564F575320DB
:10014000544F2050555247450A5448452053545265
:100150004545545320425920464952452E005448A3
:10016000452043495459204841532046414C4C4571
:100170004E0A544F204348414F532E205A454E4972
:1001800054482C0A41204449534752414345442096
:10019000434F502C0A54414B455320544845204C62
:1001A000415720494E544F0A484953204F574E203B
:1001B00048414E44532E004920414D20544845208B
:1001C0004349545927530A54525545204D415354DD
:1001D00045522E0A4B4E45454C204245464F52450E
:1001E0000A544845204543484F210054484520447F
:1001F0004553455254204255524945530A414C4CAF
:1002000020534543524554532E20414E440A534FE8
:100210004F4E2C2049542057494C4C0A42555259B4
:1002200020594F5521005448495320464143544FCB
:100230005259204752494E44530A4845524F45535C
:1002400020494E544F20445553542E0A5052455085
:1002500041524520544F2042450A52454359434C90
:1002600045442100544845205041524B20495320D9
:100270004D494E452E0A594F555220564947494C33
:10028000414E5445204143540A454E44532048456D
:1002900052452100594F55205448494E4B20594F43
:1002A000552043414E0A434C45414E205448455346
:1002B0004520535452454554533F0A4920414D204F
:1002C000544845204543484F0A4F4620594F555200
:1002D000204641494C555245210054484520464945
:1002E0004E414C20424F53532049530A4E454152F0
:1002F0002E2046494E49534820544849530A414EFE
:100300004420534156452054484520434954590AF6
:100310004F4E434520414E4420464F5220414C4CC5
:1003200021005448452044455345525420484541F6
:10033000542049530A4E4F5448494E4720434F4D8D
:10034000504152454420544F0A54484520484541A5
:1003500054204F4620424154544C452E0A5448459F
:100360002046494E414C2043495459204157414968
:1003700054532E0054484520494E44555354524935
:10038000414C205A4F4E450A495320434F4C442C70
:100390002042555420594F55520A57494C4C204938
:1003A00053204F4E20464952452E0A4E4558543A46
:1003B000205448452057415354454C414E442E004B
:1003C0004E41545552452050524F564944455320B2
:1003D0004E4F0A52454655474520464F52204556F6
:1003E000494C2E205448450A5041544820544F202F
:1003F00054484520464143544F52590A4953204ED0
:100400004F57204F50454E2E0054484520434954E5
:10041000592053545245455453204152450A515591
:100420004945544552204E4F572C20425554205494
:1004300048450A5245414C20544852454154204CAD
:1004400055524B530A44454550455220494E20547D
:100450004845205041524B2E00474F4C494154488B
:100460002753204D49474854204841530A52455389
:10047000544F5245442050454143452E204E4F0A8B
:1004800047414E4720444152452053484F57204949
:1004900054530A4641434520414741494E2E20547A
:1004A00048450A434954592049532050524F544516
:1004B000435445442E005448452046495245204F58
:1004C0004620524556454E47450A49532051554509
:1004D0004E434845442E2043494E4445520A535406
:1004E000414E445320494E205448452041534845ED
:1004F000530A4F46205448452053594E44494341DE
:1005000054452E0A535452454554532041524520D8
:10051000434C4541522E00544845205354524545C2
:1005200054532041524520534146452E0A5A454EC8
:100530004954482048415320434C45414E45440AC4
:100540005550205448452054524153482E204C4188
:10055000570A414E44204F5244455220524554556B
:10056000524E0A544F2054484520434954592E00B6
:10057000000006000C00120019001F0025002B00CF
:10058000310038003E0044004A00500056005C0034
:10059000610067006D00720078007D0082008700B6
:1005A0008C009000950099009D00A100A500A90075
:1005B000AD00B000B300B600B900BC00BF00C10080
:1005C000C300C500C700C800CA00CB00CC00CD00E6
:1005D000CE00CE00CF00CF00CF00CF00CF00CF00A5
:1005E000CE00CE00CD00CC00CB00CA00C800C700B2
:1005F000C2BE51234B29C6BE19642855C2BE404015
:100600004040BEBE64195528C2BE40404040C0C0F4
:10061000EA26622EDCB758FC4022C0D2502A54F29F
:10062000C00236384A34ACA8161E2E1EC0023E0246
:100630004030C0024A3638FF00000000003E5B4FE9
:100640005B3E3E6B4F6B3E1C3E7C3E1C183C7E3C32
:10065000181C577D571C1C5E7F5E1C00183C180040
:10066000FFE7C3E7FF0018241800FFE7DBE7FF30D0
:10067000483A060E2629792926407F050507407F3E
:1006800005253F5A3CE73C5A7F3E1C1C08081C1CB1
:100690003E7F14227F22145F5F005F5F06097F01A7
:1006A0007F006689956A606060606094A2FFA29492
:1006B00008047E040810207E201008082A1C080860
:1006C0001C2A08081E101010100C1E0C1E0C3038AE
:1006D0003E3830060E3E0E06000000000000005FAF
:1006E00000000007000700147F147F14242A7F2ACB
:1006F000122313086462364956205000080703008D
:10070000001C2241000041221C002A1C7F1C2A08D8
:10071000083E08080080703000080808080800003B
:1007200060600020100804023E5149453E00427FAF
:10073000400072494949462141494D331814127FFE
:100740001027454545393C4A49493141211109079E
:100750003649494936464949291E0000140000001F
:1007600040340000000814224114141414140041F1
:1007700022140802015909063E415D594E7C1211AE
:10078000127C7F494949363E414141227F414141E6
:100790003E7F494949417F090909013E4141517361
:1007A0007F0808087F00417F41002040413F017FD2
:1007B000081422417F404040407F021C027F7F049A
:1007C00008107F3E4141413E7F090909063E4151E3
:1007D000215E7F09192946264949493203017F01D3
:1007E000033F4040403F1F2040201F3F4038403FD4
:1007F000631408146303047804036159494D4300EA
:100800007F4141410204081020004141417F040220
:1008100001020440404040400003070800205454B7
:1008200078407F2844443838444444283844442895
:100830007F385454541800087E090218A4A49C78E8
:100840007F0804047800447D40002040403D007F44
:100850001028440000417F40007C047804787C0824
:100860000404783844444438FC18242418182424F8
:1008700018FC7C08040408485454542404043F44DD
:10088000243C4040207C1C2040201C3C4030403C0C
:1008900044281028444C9090907C4464544C44006C
:1008A00008364100000077000000413608000201D0
:1008B0000204023C2623263C1EA1A161123A4040BC
:1008C000207A38545455592155557941215454783A
:1008D00041215554784020545579400C1E527212D3
:1008E000395555555939545454593955545458005B
:1008F00000457C410002457D420001457C40F029D5
:100900002429F0F0282528F07C5455450020545423
:100910007C547C0A097F4932494949323248484867
:1009200032324A4848303A4141217A3A42402078AE
:10093000009DA0A07D39444444393D4040403D3CA9
:1009400024FF2424487E4943662B2FFC2F2BFF09CC
:1009500029F620C0887E09032054547941000044C0
:100960007D413048484A32384040227A007A0A0AAB
:10097000727D0D19317D2629292F2826292929261E
:1009800030484D4020380808080808080808382F63
:1009900010C8ACBA2F102834FA00007B00000814ED
:1009A0002A142222142A14089500220095AA005520
:1009B00000AAAA55AA55AA000000FF00101010FFB7
:1009C00000141414FF001010FF00FF1010F010F0BE
:1009D000141414FC001414F700FF0000FF00FF14AF
:1009E00014F404FC141417101F10101F101F1414FB
:1009F000141F00101010F0000000001F1010101045
:100A00001F10101010F010000000FF101010101038
:100A100010101010FF10000000FF140000FF00FF76
:100A200000001F10170000FC04F414141710171412
:100A300014F404F40000FF00F71414141414141434
:100A4000F700F7141414171410101F101F141414A7
:100A5000F4141010F010F000001F101F0000001F11
:100A600014000000FC140000F010F01010FF10FF44
:100A7000141414FF141010101F00000000F010FFD9
:100A8000FFFFFFFFF0F0F0F0F0FFFFFF00000000BD
:100A900000FFFF0F0F0F0F0F38444438447C2A2A01
:100AA0003E147E02020606027E027E026355494122
:100AB000633844443C04407E201E2006027E02022D
:100AC00099A5E7A5991C2A492A1C4C7201724C3041
:100AD0004A4D4D303048784830BC625A463D3E4918
:100AE0004949007E0101017E2A2A2A2A2A44445FBC
:100AF000444440514A444040444A51400000FF01B0
:100B000003E080FF000008086B6B083612362436BD
:100B1000060F090F06000018180000001010003022
:100B200040FF0101001F01011E00191D1712003CAA
:100B30003C3C3C0000000000F0F89C8E8783878ED0
:100B40009CF8F00000FEFF0303030303070EFCF80C
:100B50000000FEFF0303030303070EFCF80000FF81
:100B6000FF00000000000000FFFF0000FEFF838385
:100B7000838383C7EE7C380000F8FC0E0703030371
:100B8000070EFCF800003F7FE0C08080C0E07F3FA0
:100B9000FFFF01010101010101FFFF0000FFFF0C48
:100BA0000C0C0C1C3E77E3C100007FFFC0C0C0C02E
:100BB000C0E0703F1F00001F3F70E0C0C0C0E07089
:100BC0003F1F00007FFFC1C1C1C1C1E3773E1C00D0
:100BD000001F3F70E0C0C0C0E0703F1F0000000079
:100BE0000001FFFF01000000D5F08D14A1C881CFE6
:100BF000D9F1AF20005052455353204120544F208B
:100C000053544152540080200000C060B0D868683E
:100C10002828282828382838282828382828282C20
:100C200034FCECF43C383828282828283838282880
:100C30003E363C363B3F3C363EECF43C36363F39A4
:100C40003BFEF6C2DE687838282820303028282875
:100C5000282828282868F8D8E8F838383838383864
:100C600038F8E8B8D8E87838383838383838B8F844
:100C7000F8E8E878383838383838383838282828C4
:100C800028282828E8E808F800C07FE0FFBF9898E7
:100C9000989898989B9B9B9B9B9B9B838383838328
:100CA000C3E7FFFFFFFFFFFFFFFFFF808080808023
:100CB0008080FFFF0303030303FFFF8080808080A9
:100CC00080FFFFFFE0C0808080809F9F9B9B9B9B5D
:100CD0009B9F9E8E8E8E8E8EFFFF80808080808078
:100CE00080F1F111B1F0E0C0808080868E9FFFFD21
:100CF000FF9F9898989898989B9B9B9B9B9B83831E
:100D0000838383C3FF7F80FFFE03FCFDFFC7830156
:100D1000010101F9F9D9D9D9D9F9F901010103077B
:100D2000FFFF0101010101019999999999999999F7
:100D3000F9F9FF7F201C040484FDFFFF010101017C
:100D4000018199999999191901010181C1E3DFCEB6
:100D50006C1F070303818199999999998101010178
:100D600001FFFF07030101F1F9D9D9F9F9D999195F
:100D7000191919FFFF0101010101D9D9D9D9D9F9EF
:100D8000F9D9ADB7FD4FC0000102050D1B372F2E5D
:100D90002E2C282828282828282828282828E8EC45
:100DA000BFBF7858782828282F201E02020202028E
:100DB00002020300000000007F6D375F783828389A
:100DC000342F3F3F3F3D1F3E2C282828392B2F7BB7
:100DD0005878F8BC9EDF6F3F0F1F193F2F28282837
:100DE000282F2F2E2C2828282828282828684878BB
:100DF000F8B8FCEFBFBAFA4E7E5E5C5C5C7C741C9B
:100E00003E3A2A2D2F2F2F3C203E003C20005345F8
:100E10004C4543542046494748544552005E010220
:100E200001AC002053544F52593A005354414745A6
:100E300020005052455353204120544F20464947EB
:100E4000485400940264022602EB01B7013A0050B4
:100E5000524553532041000904C00374032203DAAE
:100E600002535441474520434C45415221005052C2
:100E70004553532041001705B604590456494354BD
:100E80004F5259210047414D45204F5645520008C9
:100E90000B0002020200000904000001020200002F
:100EA0000524001001052401010104240206052483
:100EB0000600010705810310004009040100020A31
:100EC0000000000705020240000007058302400001
:100ED000000403090412010002EF0201404123361D
:100EE0008000010102030141726475696E6F204C3C
:100EF0004C430041726475626F7900474F2E2E2E6D
:100F0000202D3E00474F2D3E0046494748542100C2
:100F1000424F53530048503A00C2BE51234B29C69A
:100F2000BE19642855C2BE40404040BEBE6419553B
:100F300028C2BE40404040C0C0EA26622EDCB758FE
:100F4000FC4022C0D2502A54F2C00236384A34AC97
:100F5000A8161E2E1EC0023E024030C0024A36387D
:100F6000FF5A454E49544800000C060A0A0C0C4C26
:100F70000100010002000100003C4643494E444587
:100F80005200000B0508080A0A19020203020101B7
:100F90000201002832474F4C49415448000F080CC9
:100FA0000C0E0ECC0001000102020103005A64562F
:100FB0004F4C54000000000C060E0E0C0C190100E2
:100FC00004030001000200323C4B41474500000091
:100FD000000C0609090B0B8001020102010002014D
:100FE000003737534952454E0000000B060A0A0CE1
:100FF0000C660100020001010000002D414452492D
:1010000046540000000C060A0A0C0C3301020403CB
:101010000200010000414B5455534B000000000DED
:10102000070B0B0D0DE60001010202020203005046
:101030005A4A414445000000000B0609090B0BB356
:10104000010002010101010100323C4543484F000B
:101050000000000C060A0A0C0C4C01020000000003
:101060000002003C465A454E49544800000C060A0E
:101070000A0C0C4C0100010002000100003C464338
:10108000494E44455200000B0508080A0A1902029D
:10109000030201010201002832474F4C49415448E4
:1010A000000F080C0C0E0ECC00010001020201031F
:1010B000005A64564F4C54000000000C060E0E0CF3
:1010C0000C19010004030001000200323C4B4147AF
:1010D00045000000000C0609090B0B80010201020B
:1010E00001000201003737534952454E0000000B02
:1010F000060A0A0C0C660100020001010000002D26
:101100004144524946540000000C060A0A0C0C33B4
:10111000010204030200010000414B5455534B00EF
:101120000000000D070B0B0D0DE60001010202028D
:10113000020300505A4A414445000000000B0609D2
:10114000090B0BB3010002010101010100323C4512
:1011500043484F000000000C060A0A0C0C4C010228
:10116000000000000002003C46000E2011241FBEBB
:10117000CFEFDAE0DEBFCDBF11E0A0E0B1E0E4E107
:10118000F1E602C005900D92A235B107D9F727E02C
:10119000A2E5B1E001C01D92A83BB207E1F718E05B
:1011A000C6EBD8E004C02197FE010E947330C53B16
:1011B000D107C9F70E946C200C9488300C94000071
:1011C000480F592F511D1416150684F580389105C6
:1011D0006CF597FF02C090E080E04138510514F0B3
:1011E00040E850E0481BFB01E770FF2721E001C009
:1011F000220FEA95EAF777FF02C0695F7F4FFB0194
:1012000033E0F595E7953A95E1F7F695FE2FEE2751
:10121000F795E795E80FF91FE558FE4F415030F07C
:101220008191DF011197822B8C93F8CF0895EBE722
:10123000F1E0A0E0B8E000800EBC8111012C119714
:10124000A0FDFDCF0192B9F70DB408954F925F92C2
:101250006F927F928F929F92AF92BF92CF92DF92C6
:10126000EF92FF920F931F93CF93DF93FB01E00F59
:10127000F11D1E161F060CF08AC0603471050CF0BB
:1012800086C0DB0177FF04C0AA27BB27A61BB70BCC
:10129000A770BB27EB0177FD2796E3E0D595C795AF
:1012A000EA95E1F777FF07C0219768E070E0FB015E
:1012B000EA1BFB0BDF0130E0069506950695802EB4
:1012C000912C8A01AE015695542F44275795479586
:1012D000480F591F45585E4FBE01E0E8F0E07F011E
:1012E000E81AF90A88E090E03C016A1A7B0A6F3F2D
:1012F000FFEF7F070CF43BC090E080E05A01E0E88C
:10130000AE0EB11C6F3F760709F452C0FC01E00F2E
:10131000F11FE4916A01C80ED91EF0E02F010A2ED8
:1013200001C0440C0A94EAF7F60150804528408237
:101330001097B1F06730710599F0F801E80FF91FC7
:10134000E4916501C80ED91EF0E02F01062C02C001
:10135000559447940A94E2F7F6015080452840825C
:101360000196821793071CF4E816F90659F66F5F89
:101370007F4F020F131F40585F4FCB018C1B9D0BFB
:101380008815990524F46830710509F0B0CFDF9114
:10139000CF911F910F91FF90EF90DF90CF90BF9072
:1013A000AF909F908F907F906F905F904F90089537
:1013B000109709F0C2CFD4CFFC018091740188232B
:1013C00011F13FB7F89482E08093E9002091F20098
:1013D000822F90E01816190614F481E090E088231B
:1013E00039F0289844E6409373014091F10040831E
:1013F000222339F02091F200211103C02BE6209323
:10140000E8003FBF08958FEF9FEF08952FB7F8943E
:1014100083E08093E9009091E800892F807295FF26
:1014200004C09091F20080E4891B2FBF0895809141
:101430006B0181110DC082E08093670184E080938D
:10144000680110926A011092690181E080936B013A
:1014500087E691E00895CF93DF931F92CDB7DEB773
:101460006983DC01ED91FC910280F381E02D41E084
:1014700050E0BE016F5F7F4F09950F90DF91CF91D4
:10148000089583E08093E9008091F200882319F0A9
:101490008AE38093E80008950E94060A90E0089588
:1014A000CF93DF931F92CDB7DEB7FC01848595857E
:1014B00097FD08C02FEF3FEF358724870F90DF910E
:1014C000CF910895CE0101960E94DC09019719F48D
:1014D000898190E0F3CF8FEF9FEFF0CF0F931F93B1
:1014E000CF93DF931F92CDB7DEB78C01FC018485CB
:1014F000958597FF0BC0CE0101960E94DC090197EC
:1015000071F4898190E0F80195878487F8018485DA
:1015100095850F90DF91CF911F910F9108958FEFD7
:101520009FEFF1CFFC018485958597FD0BC09FB798
:10153000F89482E08093E9008091F2009FBF90E0F0
:10154000019608959FB7F89482E08093E900809116
:10155000F2009FBF90E008954091610150916201B7
:1015600020915F013091600142175307B4F49091CC
:10157000E8009570E1F39091E80092FD19C0809326
:10158000F100809161019091620101968F7399271A
:10159000892B19F48EEF8093E8008091610190917E
:1015A00062010196909362018093610181E0089548
:1015B00080E00895DF92EF92FF920F931F93CF93F5
:1015C000DF93D82E8A01EB017B01E40EF51ECE15C8
:1015D000DF0559F0D7FE12C0FE0184910E94AC0ACB
:1015E00021968111F4CF0FEF1FEFC801DF91CF914A
:1015F0001F910F91FF90EF90DF9008958881EECFBB
:101600000F931F93CF93DF931F92CDB7DEB782E086
:10161000898342E450E06FE87EE080E80E94DA0AC5
:101620000E94170ADC0112960D911C9101151105FB
:1016300089F0D801ED91FC910280F381E02DBE018B
:101640006F5F7F4FC801099597FD04C0F8010085C1
:101650001185ECCF89810F90DF91CF911F910F9170
:101660000895615030F02091F100FC012083019633
:10167000F8CF289884E68093730108953FB7F894D3
:1016800080915B0190915C01A0915D01B0915E0140
:1016900026B5A89B05C02F3F19F00196A11DB11DCD
:1016A0003FBFBA2FA92F982F8827BC01CD01620F09
:1016B000711D811D911D42E0660F771F881F991FC4
:1016C0004A95D1F708958F929F92AF92BF92CF9291
:1016D000DF92EF92FF926B017C010E943E0B4B0167
:1016E0005C01C114D104E104F104B9F00E943E0B85
:1016F000681979098A099B09683E7340810591053B
:1017000080F321E0C21AD108E108F10888EE880EC2
:1017100083E0981EA11CB11CE4CFFF90EF90DF90F6
:10172000CF90BF90AF909F908F9008958F929F928F
:10173000AF92BF92CF92DF92EF92FF920F931F93DF
:10174000CF93DF936C017B018A0180910C01882388
:1017500009F45CC080917401882309F457C080911A
:10176000660180FF05C08091E00082608093E00008
:10177000E801B12C8AEFA82E93E0892E2AE3922E5D
:10178000209711F4BB20D9F10E94060A81110AC0EA
:10179000AA94AA20D9F161E070E080E090E00E9474
:1017A000630BEECF8C171D0611F00CF08C2F9FB73A
:1017B000F8948092E9002091E80025FD02C09FBFC7
:1017C000DFCF282F30E0C21BD30BF701815020F070
:1017D00041914093F100FACFE20EF31EBB2021F0BD
:1017E0009092E800B12CEBCF8091E80085FDE7CF27
:1017F0009092E800BB24B394209709F3F3CF5D984F
:1018000084E680936501101611063CF081E090E0BB
:10181000F6019383828310E000E0C801DF91CF914D
:101820001F910F91FF90EF90DF90CF90BF90AF90FE
:101830009F908F900895AF92BF92CF92DF92EF92D8
:10184000FF920F931F93CF93DF936C017B018B016A
:10185000040F151FEB015E01AE18BF08C017D107BA
:1018600059F06991D601ED91FC910190F081E02D44
:10187000C6010995892B79F7C501DF91CF911F9199
:101880000F91FF90EF90DF90CF90BF90AF900895B1
:101890002D9A0895BC0190E080E00C94630B8FB109
:1018A0008095807F669B88601C9B846008959091E2
:1018B0005201982329F490915301982381E009F46F
:1018C00080E00895CF93C82F0E944F0C982F9C233F
:1018D00081E09C1380E0CF91089580E00C9417097B
:1018E00080389105B8F460347105A0F420E191E0EE
:1018F00061FD94E060FD990F62FD9295687F269FDF
:10190000D0011124A80FA558BE4F8C9140FF03C0F1
:10191000892B8C93089590958923FBCF2F923F922A
:101920004F925F926F927F928F929F92AF92BF92EF
:10193000CF92DF92EF92FF920F931F93CF93DF939B
:10194000EC018B017A016901C61AD70AD7FE03C0E0
:10195000D194C194D10847018C1A9D0A97FE03C007
:101960009194819491088C149D0454F49E2D8F2D94
:101970007901292F382F9C2F8D2FE801092F182F3F
:10198000EC16FD0654F4902F812F8901292F382F52
:101990009C2F8D2FE701E92EF82E17012C1A3D0AF6
:1019A0002901401A510A57FE03C05194419451082D
:1019B000310137FE03C08FEF681A780A7594679477
:1019C0008FEF021713070CF481E0A82E880FBB08D5
:1019D000EC16FD06A4F041E0BE01C8018C149D0484
:1019E00014F0B801CE010E94700C6418750877FEDF
:1019F00004C00A0D1B1D620C731C2196E9CFDF91F8
:101A0000CF911F910F91FF90EF90DF90CF90BF90FB
:101A1000AF909F908F907F906F905F904F903F908E
:101A20002F9008952F923F924F925F926F927F92E4
:101A30008F929F92AF92BF92CF92DF92EF92FF92DE
:101A40000F931F93CF93DF9300D000D0CDB7DEB7B5
:101A50007C018B01242F30E03C832B8381E090E0DC
:101A60005C01A21AB30A1901319421943108220CA5
:101A7000331CB901600F711F41E0C7010E94700C57
:101A8000B8018B819C81681B790B41E0C7010E94E2
:101A9000700C41E0B8018B819C818E0D9F1D0E94CE
:101AA000700C41E0B801C7012B813C81821B930B74
:101AB0000E94700CD12CC12C81E090E09A83898324
:101AC0002B813C81C216D3060CF05DC0B7FC09C067
:101AD000215031093C832B8332E0230E311CA20CB0
:101AE000B31C8FEFC81AD80A29813A812E5F3F4F65
:101AF0003A832983A20EB31E37016C0C7D1C41E092
:101B00008B809C80800E911EB401C3010E94700CDA
:101B100027014C185D0841E0B401C2010E94700C1D
:101B200041E048018B819C81881A990AB401C30164
:101B30000E94700C41E0B401C2010E94700C460189
:101B4000800E911E41E0B4016B807C806E0C7F1C86
:101B5000C3010E94700C41E0B40127012B813C813C
:101B6000421A530AC2010E94700C48018C189D0849
:101B700041E0B401C3010E94700C41E0B401C20114
:101B80000E94700C9DCF0F900F900F900F90DF91DF
:101B9000CF911F910F91FF90EF90DF90CF90BF906A
:101BA000AF909F908F907F906F905F904F903F90FD
:101BB0002F9008958F929F92AF92BF92CF92DF9213
:101BC000EF92FF920F931F93CF93DF936D3089F0C5
:101BD000C0907501D09076016A30D1F410927801EE
:101BE0001092770188E0C80ED11CD0927601C09285
:101BF000750181E090E0DF91CF911F910F91FF90EF
:101C0000EF90DF90CF90BF90AF909F908F9008950E
:101C10000091770110917801E5E06E9FE0011124B9
:101C2000C85CD94F4801F12CF5E0E12CFF1629F0F2
:101C3000CE010196FE01E490EC01B12CA12C4E2DB9
:101C40004170B6016A0D7B1DC4010E94700CE694C0
:101C5000FFEFAF1ABF0A88E0A816B10481F7F3942A
:101C6000EFEF8E1A9E0AF6E0FF12DECF0A5F1F4FDB
:101C70001093780100937701BCCF0F931F93CF93FC
:101C8000DF938C01D0E0C0E0F801EC0FFD1F649100
:101C9000662341F08BEC95E00E94DA0D892B11F060
:101CA0002196F2CFCE01DF91CF911F910F91089530
:101CB000DF92EF92FF920F931F93CF93DF937C01FC
:101CC000D22E8B01040F111DEB0177FF02C0D0E073
:101CD000C0E0C8010134110514F080E490E0C81799
:101CE000D9073CF44D2DBE01C7010E94700C21960E
:101CF000F0CFDF91CF911F910F91FF90EF90DF9088
:101D000008952F923F924F925F926F927F928F929F
:101D10009F92AF92BF92CF92DF92EF92FF920F937A
:101D20001F93CF93DF9300D01F92CDB7DEB76C0126
:101D30005B01842F90E09B838A83440F4F5F681B75
:101D4000790B20E0C6010E94580E01E010E0EA8104
:101D5000FB810E1B1F0B1F01319421943108220CB3
:101D6000331C66246394712CF12CE12C17FD0AC0FE
:101D70008A819B8101979B838A8392E0290E311C83
:101D8000020D131DEFEFEE1AFE0AF2E06F0E711C4A
:101D9000060D171D8A81880F8F5F898320E0482FE9
:101DA00025018A819B81481A590AB201C7018C0D0D
:101DB0009D1D0E94580E45018E189F0820E0462D5B
:101DC000B4018A819B818C0D9D1D0E94580E20E0DC
:101DD0004981B201C6018E199F090E94580E20E068
:101DE000462DB401C601EA81FB818E1B9F0B0E9428
:101DF000580E8A819B81E816F9060CF4B7CF0F9034
:101E00000F900F90DF91CF911F910F91FF90EF9066
:101E1000DF90CF90BF90AF909F908F907F906F900A
:101E20005F904F903F902F900895EF92FF920F9305
:101E30001F93CF93DF937C018B01C42FD22F60348B
:101E4000710510F40E94E008B8016D0F711D61501A
:101E500071096034710520F44C2FC7010E94E0081D
:101E600021E04D2FB801C7010E94580EC7018C0F09
:101E7000911D21E04D2FB8010197DF91CF911F9166
:101E80000F91FF90EF900C94580ECF92DF92EF924B
:101E9000FF920F931F93CF93DF936B01122FEC01EF
:101EA0007C01E40EF11CCE15DF0544F4202F412FF8
:101EB000B601CE010E94580E2196F5CFDF91CF9149
:101EC0001F910F91FF90EF90DF90CF9008950895AC
:101ED00090E080E00895E82FEF73829586958695CF
:101EE0008370F0E039F4EE0FFF1FE059FA4F85914F
:101EF00094910895813039F48FE390E09C012E1B7A
:101F00003F0BF901F0CF823051F4EE0FFF1FE05983
:101F1000FA4F8591949191958195910908958FE358
:101F200090E09C012E1B3F0BF901EFCF2F923F92C7
:101F30004F925F926F927F928F929F92AF92BF92D9
:101F4000CF92DF92EF92FF920F931F93CF93DF9385
:101F5000CDB7DEB760970FB6F894DEBF0FBECDBF2A
:101F6000988B8F877D876C878A01822EFC01EE59C2
:101F7000FF4F80818C5F80830E946B0FE6E0959518
:101F80008795EA95E1F7AF85B88995964C9150E031
:101F900070E060E0CC24D42EE52EF62EC886D986DB
:101FA000EA86FB868B83D82EDD0CDC82282F87FF08
:101FB00002C021E0280F25952D83169507951695CB
:101FC00007959801237033273F832E83AF84B88809
:101FD000C501CC969A838983150194E3290E311C9F
:101FE00010E000E0CC24CA94C80CCE86D5015596EA
:101FF0008C9181112AC00111B1C0EC85FD85E00FE3
:10200000F11FE491811010C0802F011102C0CB801C
:10201000EC0D9EEF980F923010F4DC80ED19845097
:10202000823010F4ED80EE0DD1014C918E2F90E0B6
:10203000841B910947FD93959C012F5F3F4F2330EF
:10204000310508F0A4C0EC9302C00630B0F2D10113
:102050009D901D01EF85F8892485222319F0F0E871
:10206000F9199F2ED5015496EC91EF3F09F0ABC0C2
:10207000EF85F889C080D180E280F380448055806C
:102080006680778088859985AA85BB85481A590A14
:102090006A0A7B0A868597858330910519F00D972A
:1020A000069720F494E0590E611C711CAE85A43093
:1020B00040F4EE81FF81EF2B21F4F1E05F1A61081B
:1020C0007108043009F06DC080E09EEFAFEFBFEF04
:1020D000222321F080E092E0A0E0B0E0C80ED91EFB
:1020E000EA1EFB1E80E4890D0E946B0FD5015596F8
:1020F0002C9130E0DC010E948130672F782F892FEE
:10210000992787FD9A95762F6627C60ED71EE981F7
:10211000FA81C192D192FA83E983892D0E946B0FD3
:10212000D50155962C9130E0DC010E948130672F5B
:10213000782F892F992787FD9A95762F6627460E47
:10214000571EE981FA81578646860F5F1F4FF4E0DC
:10215000AF0EB11C0830110509F048CF60960FB6DC
:10216000F894DEBF0FBECDBFDF91CF911F910F91CD
:10217000FF90EF90DF90CF90BF90AF909F908F90A7
:102180007F906F905F904F903F902F90089597FDB4
:1021900003969595879595958795840FF101808392
:1021A00056CF053009F09ECF80E092E0A0E0B0E08D
:1021B000211104C080E09EEFAFEFBFEFC81AD90A2B
:1021C000EA0AFB0A8FCFEE0FFF0BCF84D888EC0D05
:1021D000FD1DC4ACD5AC0D2C000CEE08FF08E45B73
:1021E000FF4F40805180052C000C660877080230B4
:1021F00009F46ACF033009F075CFD6CF4F925F92C2
:102200006F927F928F929F92AF92BF92CF92DF9206
:10221000EF92FF920F931F93CF93DF93CDB7DEB76B
:10222000E4970FB6F894DEBF0FBECDBFFB0128E0E8
:1022300020939E0725E020939F07DC0114964D9183
:102240005D916D917C91179704811581268137816D
:10225000401B510B620B730B77FF07C070956095A5
:10226000509541955F4F6F4F7F4F41305F40610503
:1022700071050CF0DCC04081518162817381009155
:10228000D1051091D2052091D3053091D405401B82
:10229000510B620B730B452F562F672F772767FD66
:1022A0007A95455C5F4F4737510508F0C0C08F01F4
:1022B0007C016C01E1E6CE0ED11CD6016C913AE1B5
:1022C000B32E6B9DB00111246F59704F4AE150E05D
:1022D000CE014B960E94A62FF801EF59FF4F608167
:1022E0006B9DB00111246F59704F4AE150E0CE014F
:1022F00001960E94A62FF7018685978548E050E059
:102300008530910531F04CE050E0089711F04AE03B
:1023100050E0D70151968C9151978F5F843008F02F
:102320009DC051968C93D70151962C91622F70E0ED
:10233000685F7F4F649FC001659F900D749F900DF3
:1023400011246AE070E00E945F303BA9369FC00113
:10235000379F900D11246CE370E00E945F30F6010E
:102360008081FAE18F9FC001112450E040E030E00D
:1023700083599F4EFC01E40FF51FE4913E0F4F5F20
:102380005F4F46305105B1F7369FC001379F900D22
:1023900011246EE370E00E945F3036E4369FC00186
:1023A000379F900D11246A8D70E0625E7F4F0E940E
:1023B0005F30822F90E0B0E0A0E00296A11DB11D39
:1023C000982F8827D7014D905D906D907C90F801F3
:1023D00080809180A280B380481459046A047B04F1
:1023E0000CF040C0918780879C0197FF02C02D5F51
:1023F0003F4F35952795359527953195219531098D
:10240000D70119963C932E931897F8019289961B41
:10241000928B2AE030E03787268751962C91822FC5
:10242000880F880F820F815F808B97FD128AE49658
:102430000FB6F894DEBF0FBECDBFDF91CF911F91D5
:102440000F91FF90EF90DF90CF90BF90AF909F9053
:102450008F907F906F905F904F90089581E0F7018B
:10246000818B61CF22273327281B390B31872087A7
:102470009C0197FF02C02D5F3F4F359527953595FD
:102480002795BECF8F929F92AF92BF920F931F93CB
:10249000CF93DF93CDB7DEB7A1970FB6F894DEBF29
:1024A0000FBECDBF19A2423008F44AE08E010F5D85
:1024B0001F4F842E912CB12CA12CA50194010E94B8
:1024C000FE2FE62FB901CA01EA3044F5E05DD801DC
:1024D000EE938D01232B242B252B79F790E080E0C0
:1024E000109769F0FD0101900020E9F73197AF01E5
:1024F0004A1B5B0BBD018BEC95E00E941B0CA19667
:102500000FB6F894DEBF0FBECDBFDF91CF911F9104
:102510000F91BF90AF909F908F900895E95CD7CFB7
:10252000009769F0FC0101900020E9F73197AF01B5
:10253000481B590BBC018BEC95E00C941B0C90E0F4
:1025400080E00895CF92DF92EF92FF92CF93DF93D6
:102550006C01092E000CEE08FF0897FF19C06DE210
:102560008BEC95E00E94DA0DEC0166277727CB0112
:102570006C197D098E099F094AE00E9442128C0F56
:102580009D1FDF91CF91FF90EF90DF90CF90089546
:102590004AE0C701B601DF91CF91FF90EF90DF9045
:1025A000CF900C9442120C94B62FCF92DF92EF9200
:1025B000FF926B017C01C114D104E104F10441F0EC
:1025C0000E944E2FA70196010E94CC2F6B017C0127
:1025D000C701B601FF90EF90DF90CF9008952F9242
:1025E0003F924F925F926F927F928F929F92AF92A3
:1025F000BF92CF92DF92EF92FF920F931F93CF93F0
:10260000DF93CDB7DEB766970FB6F894DEBF0FBE87
:10261000CDBF6B877C878D879E872F87388B498BB3
:102620005A8BEB8AFC8A0D8B1E8B8BA5D4011896D6
:102630004D905C90052C000C66087708882309F4FF
:10264000C8C065E070E080E090E00E94D5128B0188
:102650009C01025011092109310965E070E080E018
:1026600090E00E94D5126250710981099109D4014C
:102670008D919D910D90BC91A02D89839A83AB8300
:10268000BC83F801E05CFF4FFE83ED83D401149618
:102690008D919D910D90BC91A02D8F839887A987D6
:1026A000BA871B01B0E22B0E311CA60195018F8168
:1026B0009885A985BA85281B390B4A0B5B0BC3018A
:1026C000B2010E942F3024E6C22ED12CE12CF12C35
:1026D000A70196010E94CC2F832E942EA52EBB24F9
:1026E000A7FCBA94820C931C2B893C894D895E8986
:1026F00089819A81AB81BC81281B390B4A0B5B0B0A
:10270000C301B2010E942F30A70196010E94CC2F75
:10271000232F342F452F552747FD5A95AD80BE8076
:10272000A20EB31E2F85388949895A898F819885D1
:10273000A985BA85281B390B4A0B5B0BC301B20173
:102740000E942F30A70196010E94CC2F232F342FF7
:10275000452F552747FD5A95220E331E2B853C8564
:102760004D855E8589819A81AB81BC81281B390B9F
:102770004A0B5B0BC301B2010E942F30A7019601E7
:102780000E94CC2FBB2757FDBA95A52F942F832FDE
:10279000ED81FE818E0F9F1F9401A501B101669608
:1027A0000FB6F894DEBF0FBECDBFDF91CF911F9162
:1027B0000F91FF90EF90DF90CF90BF90AF909F90E0
:1027C0008F907F906F905F904F903F902F900C94E0
:1027D0008E0C10E000E070E060E049CF2F923F9255
:1027E0004F925F926F927F928F929F92AF92BF9221
:1027F000CF92DF92EF92FF920F931F93CF93DF93CD
:10280000CDB7DEB7A7970FB6F894DEBF0FBECDBF2A
:102810002C017E8F6D8F49A3FC01EF59FF4F608122
:102820000AE1609FB00111246B597F4E4AE150E0EC
:10283000CE0101960E94A62FD20195968C9190E030
:10284000B0E0A0E0EE24F82E092F1A2FEAA2FBA296
:102850000CA31DA358A24F8E12010CE3200E311CB5
:102860001B8E9201225B3F4F3FA32EA3AF8DB8A1D9
:1028700055968C91811103C0BB8DB111B8C1AF8D3C
:10288000B8A15496EC91EF3F09F063C0F20160816A
:102890007181828193812481358146815781EAA0AB
:1028A000FBA00CA11DA12E193F09400B510B068462
:1028B000F785E02DE330F10519F03D97369718F4D0
:1028C0003C5F4F4F5F4F0B8D043059F5D2011C9682
:1028D000EC91C12CB2E0DB2EE12CF12CE11106C011
:1028E000C12CAEEFDA2EEE24EA94FE2C6C0D7D1D89
:1028F0008E1D9F1DD1015096AD90BC9051970B2C11
:10290000000CCC08DD08ED90FC900F2C000C000BA7
:10291000110BB9A1BF938D8C9E8C0E94EF120F906A
:1029200057C1BB8DB53071F5D2011C96EC91C12C0D
:10293000F2E0DF2EE12CF12CE11106C0C12CEEEF0C
:10294000DE2EEE24EA94FE2C6C197D098E099F0977
:10295000D1CFEE0FFF0BE40DF51D64AD75AD072E65
:10296000000C880B990BE45BFF4F20813181032E13
:10297000000C440B550BBB8DB23009F4A7CFBB8DB7
:10298000B33091F2BB8DB13009F0B4CFED8DFE8D37
:1029900080849184092C000CAA08BB08F9A1FF23AC
:1029A00009F4C3C065E070E080E090E00E94D512B9
:1029B0006B017C0102E0C01AD108E108F10865E072
:1029C00070E080E090E00E94D5128B019C010250E3
:1029D000110921093109D201DE962D913C91032E76
:1029E000000C440B550BED8DFE8D80819181A281F1
:1029F000B381281B390B4A0B5B0BC501B4010E9444
:102A00002F3024E630E040E050E00E94CC2F232F0E
:102A1000342F452F552747FD5A95F0E4CF0ED11C92
:102A20007601E20EF31EAEA1BFA12D913C91032EC3
:102A3000000C440B550BED8DFE8D84819581A68194
:102A4000B781281B390B4A0B5B0BC501B4010E94EF
:102A50002F3024E630E040E050E00E94CC2F232FBE
:102A6000342F452F552747FD5A95005E1F4F3801DB
:102A7000620E731ED2011C96BC91BC8F11E0ED8DCD
:102A8000FE8D80859185893791050CF410E0898948
:102A900004E0882309F44EC003E0813009F04AC005
:102AA000812F880F47E0942E980E812F90E0039697
:102AB0005301A81AB90A6701C81AD90A00E0292DDA
:102AC000492DB501C6010E94450F292D492DB5019B
:102AD000C6010E94150F8A898130C1F5012F10E0CF
:102AE0009DEFC92EDD24DA94C01AD10AC801880FDF
:102AF000991F3BEFA32EBB24BA94A81AB90AA60CBF
:102B0000B71C0D5F1F4F4301801A910A0C151D055C
:102B1000ACF1C7018C0D9D1D9501AC01B4010E9463
:102B20008E0CF2E0CF0ED11CF1CFD12CC12C10E0D5
:102B300000E051CF010F402FB301C7010E94810E69
:102B4000402FB301C7010E94120DC5CF823009F09A
:102B500067C0812F90E09C012E5F3F4FB301621B45
:102B6000730B6034710550F4412F440F495F039695
:102B70008701081B190BC8010E94E0081C8D0FEF8C
:102B8000111101C001E08B89811169C0000F110B87
:102B900041E0630121E0C21AD108B601C701801BE0
:102BA000910B0E94700C41E0B601C701800F911F8C
:102BB0000E94700C8D8981110BC0B3016E5F7F4F35
:102BC0006034710528F443E0C70101970E94E008D2
:102BD000EB8DEF5FEB8F0F8D18A10C5F1F4F18A3CC
:102BE0000F8F12E0210E311CE83009F03FCEA7967E
:102BF0000FB6F894DEBF0FBECDBFDF91CF911F910E
:102C00000F91FF90EF90DF90CF90BF90AF909F908B
:102C10008F907F906F905F904F903F902F9008958E
:102C2000843009F0ABCF86E0B82EB10E012F10E052
:102C30000C5F1F4F21E04B2D630132E0C31AD10816
:102C4000B601C701801B910B0E94580E21E04B2D4D
:102C5000B601C701800F911F0E94580E8FCF82309E
:102C600009F0A8CF8301015011099801A701415033
:102C70005109630182E0C81AD108B601C701029761
:102C80000E948E0C9601A7014E5F5F4FB801C701ED
:102C900001960E948E0C8ECF2F923F924F925F92A0
:102CA0006F927F928F929F92AF92BF92CF92DF925C
:102CB000EF92FF920F931F93CF93DF93CDB7DEB7C1
:102CC000A4970FB6F894DEBF0FBECDBF4090D105DC
:102CD0005090D2056090D3057090D405452C562CA9
:102CE000672C772467FC7A9462012091A107C201C6
:102CF0002111E2C157FC0396959587959595879587
:102D000060E870E00E945F3000E81FEF081B190BBD
:102D100020E031E05901A81AB90A78012EE1E20E4B
:102D2000F11C25E030E0A70164E170E0C8010E94D9
:102D30008E0CA801445C5F4F24E130E065E070E058
:102D4000C7010E948E0C780130E5E30EF11C30E0E3
:102D500020E0A7016FE070E0C801C2960E948E0CCF
:102D6000A80148585F4F24E130E070E060E0C701FF
:102D70000E948E0C00581F4F0A151B0571F6C201E8
:102D8000D7FC01969595879560E470E00E945F30CE
:102D900020EC3FEF7901E81AF90A20EC30E0590104
:102DA000A81AB90A00E026E144E16AE070E0C70130
:102DB0000E94450F26E144E16AE070E0C7010E94ED
:102DC000150F470149E1840E911C21E14EE16FE0AE
:102DD00070E0C4010E94450F21E14EE16FE070E018
:102DE000C4010E94150F50E4E50EF11CEA14FB0427
:102DF000C9F6C60160E570E00E945F3000EB1FEF8E
:102E0000081B190B20EF30E07901E81AF90A21E0DC
:102E10004BE165E070E0C8010E94580E4BE065E0B0
:102E200070E0C80105970E94E008005B1F4FE016A4
:102E3000F10669F740E860E270E090E080E00E940F
:102E4000E008C60168E270E00E945F30AC01990FB3
:102E5000660B770B88ED9FEFAFEFBFEF841B950BF1
:102E6000A60BB70B052C000C66087708840D951D82
:102E7000A61DB71D2224382E492E5A2EF5E06F2E9E
:102E8000712C80919E078F9361ED862E65E0962EC2
:102E9000A12C70E5B72EC12CD12C8201710120E04C
:102EA00032E340E050E0C201B1010E94EF1241E084
:102EB000641A710858E2350E411C511C0F906114C0
:102EC0007104F9F68091D1059091D205A091D305B6
:102ED000B091D4057C018D016AE6F61A0F4F1F4FA1
:102EE000BC01CD0170548109910920919E072F9357
:102EF000A12C32E3B32EC12CD12C20E032E340E0F0
:102F000050E00E94EF128091D1059091D205A091DE
:102F1000D305B091D4057C018D01EAE6FE1A0F4F6E
:102F20001F4FBC01CD0170548109910920919E076A
:102F30002F93A12C40E5B42EC12CD12C20E030E5FC
:102F400040E050E00E94EF120AE617E05CE7C52E71
:102F500057E0D52E0F900F90D80118968C911897A6
:102F6000882309F451C04D905D906D907C908091C4
:102F7000D1059091D205A091D305B091D405481AFE
:102F8000590A6A0A7B0A452C562C672C772467FC61
:102F90007A945201B0E4AB0EB11CF80184819581A2
:102FA000A681B7814091D5055091D6056091D7058E
:102FB0007091D805841B950BA60BB70B892F9A2F00
:102FC000AB2FBB27A7FDBA957C01F0E2EF0EF11CF9
:102FD000BC01635E7F4FF201FD9627E047E0CF0121
:102FE0000E94150F20E4E216F10430F4C201CF96DE
:102FF00043E0B7010E94E008B7016150710921E088
:1030000043E0C5010E94580E075F1F4FC016D1064E
:1030100009F0A2CF8BED95E09C878B8780916707A5
:10302000882309F4D1C18EE396E09E878D8742E024
:1030300050E05C8B4B8B80916807882379F0EB899B
:10304000FC89EE0FFF1FEC0FFD1F81EA96E09487CD
:103050008387AB89BC891196BC8BAB8B8091690748
:10306000882379F0EB89FC89EE0FFF1FEC0FFD1F21
:1030700084E097E094878387EB89FC893196FC8B09
:10308000EB8B9E01255F3F4F3A8F298FF90190E02E
:1030900080E00B891C8901501109801791070CF001
:1030A000BEC101963F019C014B895C8924173507FD
:1030B00009F08FC13296F1CF213009F075C057FC6D
:1030C00001969595879560E470E00E945F300FEC63
:1030D0001FEF081B190B2FEC30E05901A81AB90A91
:1030E0004AE06FE070E0C8010E94810E4AE06FE0A4
:1030F00070E0C8010E94120D21E047E069E170E034
:10310000C8010E94580E48016EE1860E911C48E0ED
:103110006CE070E0C4010E94810E48E06CE070E059
:10312000C4010E94120D21E04CE064E170E0C40192
:103130000E94580E005C1F4F0A151B0589F6C60138
:1031400064E670E00E945F3026EA3FEF5901A81A5A
:10315000B90A26E331E07901E81AF90A00E025E02E
:1031600044E169E170E0C5010E94450F25E044E1BA
:1031700069E170E0C5010E94150F21E042E06EE1B7
:1031800070E0C50102960E94580E21E042E06EE117
:1031900070E0C50142960E94580E84E6A80EB11C4C
:1031A000AE14BF04D9F646CE57FC03969595879585
:1031B00095958795223009F052C060E870E00E9432
:1031C0005F3028EA3FEF7901E81AF90A08E211E0D6
:1031D000081B190B43E065E070E0C7010E94120D67
:1031E00090E8E90EF11CE016F106A1F7C201D7FC48
:1031F00001969595879560E570E00E945F3020EB21
:103200003FEF5901A81AB90A20EF30E07901E81A16
:10321000F90A00E02CE048E264E170E0C5010E9498
:10322000450F2CE048E264E170E0C5010E94150FF3
:1032300021E04CE064E170E0C5010A960E94580E5E
:1032400021E04CE064E170E0C5014E960E94580E0A
:10325000A0E5AA0EB11CAE14BF04D9F6EBCD233005
:1032600009F05AC060E870E00E945F3020E83FEF4C
:103270005901A81AB90A00E011E0081B190B7501E1
:10328000B0E4EB0EF11C2FE030E0A70169E170E043
:10329000C5010E948E0CE0E8AE0EB11C29E130E0C1
:1032A000A5016FE070E0C7010E948E0CA016B10668
:1032B00031F7C6016AE570E00E945F302AEB3FEF0C
:1032C0005901A81AB90A02E211E0081B190B21E002
:1032D0004FE06FE070E0C5010E94580E4AE064E1E3
:1032E00070E0C50105970E94E0087501F8E2EF0E55
:1032F000F11C44E06CE170E0C7010E94810E44E0E3
:103300006CE170E0C7010E94120D2AE5A20EB11C0B
:10331000A016B106E1F68ECD60E470E00E945F3049
:1033200025EC3FEF5901A81AB90A25E031E07901EF
:10333000E81AF90A00E02BE14FE065E070E0C50112
:103340000E94450F2BE14FE065E070E0C5010E944F
:10335000150F41E068E070E0C50103960E94700C13
:1033600041E06FE070E0C50107960E94700C30E408
:10337000A30EB11CAE14BF04E9F6C60168E270E00A
:103380000E945F3008ED1FEF081B190B28EC30E09E
:103390007901E81AF90A21E041E16FE070E0C80123
:1033A0000E94580E42E06FE070E0C8010E94810E5A
:1033B00042E06FE070E0C8010E94120D085D1F4FEF
:1033C0000E151F0541F736CD81E090E09C8B8B8B6D
:1033D00032CE40815181D30112966D917C91DA01F8
:1033E00014968D909D90AD90BC901797DB0114962C
:1033F000CD90DD90ED90FC901797C814D904EA04A5
:10340000FB043CF471836083D30113965C934E9369
:1034100012972F5F3F4FB2E06B0E711C45CE188E96
:103420001F8AA4E64A2E512C612C712CE98DFA8D4D
:1034300021903190FA8FE98FD1011E96ED91FC9188
:103440001F97EA30F10509F07BC050968C9183708C
:10345000823008F029C2EF89F88D3196F88FEF8B12
:103460002B893C89E217F30709F710927801109233
:103470007701109276011092750185E19FE00E941C
:103480003D0E8091ED05082E000C990B0E94A212B2
:1034900024E049E162E070E084E690E00E94150FCC
:1034A0002091A2073091A3074091A4075091A5074E
:1034B000A7E1B0E00E94EB2F20E032EE44E050E0C4
:1034C0000E94CC2F37FF02C030E020E0A901283154
:1034D000310514F047E150E001E022E063E070E0E4
:1034E00085E690E00E94450F81E490E0909378019A
:1034F0008093770110927601109275018091B30745
:10350000882309F4AFC180E19FE00E943D0EA4969C
:103510000FB6F894DEBF0FBECDBFDF91CF911F91E4
:103520000F91FF90EF90DF90CF90BF90AF909F9062
:103530008F907F906F905F904F903F902F90089565
:103540003BED231635E0330629F480917C0718E023
:10355000811113C03197EA30F10570F4EE54F54E45
:103560000C9473301A1C2B1CBC1A271C271C271CFC
:10357000291C291C291C5A1C10E0D10114968D917C
:103580009D910D90BC91A02D8B8F9C8FAD8FBE8F88
:10359000292F3A2F4B2F552747FD5A952253310992
:1035A00041095109A8E2B0E00E94EB2F2EE130E082
:1035B00040E050E00E94CC2FF901E05BFF4FFE8B12
:1035C000ED8B8AE0E1EDF5E0DE01119601900D92C0
:1035D0008A95E1F72091D9053091DA054D895E8908
:1035E000429FC001439F900D529F900D112464E6AD
:1035F00070E00E945F306B017A8769878D899E89B0
:103600006AE070E00E945F30062FD1018D919D919C
:103610000D90BC91A02D89A39AA3ABA3BCA3460196
:103620000D2C000CAA08BB0880919E07882309F482
:1036300014C165E070E080E090E00E94D512625015
:1036400071098109910978A36F8F65E070E080E0CE
:1036500090E00E94D51262507109810991097B01A5
:10366000202F000F330BD6010E947930A301920165
:103670000E94CC2F022F12160CF001E08D819E814A
:10368000AF81B8852B8D3C8D4D8D5E8D281B390B00
:103690004A0B5B0BC501B4010E942F30A3019201BC
:1036A0000E94CC2F232F342F452F552747FD5A95A5
:1036B000B0E2EB0EF11CE20EF31E89819A81AB8120
:1036C000BC8129A13AA14BA15CA1281B390B4A0B53
:1036D0005B0BC501B4010E942F30A30192010E942F
:1036E000CC2FBB2757FDBA95A52F942F832F2F8D55
:1036F00038A1205C3F4F820F931F402FB7010E94DB
:10370000120D4091790150917A01E6E01E9FB001BF
:103710001124675E704F212FC1010E94960F4091C6
:103720009E07BE016F5F7F4FC1010E94EE13FBED4C
:103730002F16F5E03F0609F48ECE89849A84092C71
:10374000000CAA08BB08D1012D913D914D915C91CF
:103750008091D1059091D205A091D305B091D40567
:10376000281B390B4A0B5B0BC501B4010E942F309B
:10377000A30192010E94CC2FC32ED42EE52EFF244C
:10378000E7FCFA94F10124813581468157818091CB
:10379000D5059091D605A091D705B091D805281BE5
:1037A000390B4A0B5B0BC501B4010E942F30A301FA
:1037B00092010E94CC2F232F342F452F552747FDF0
:1037C0005A95205E3F4F6DED4D895E896403C001BF
:1037D000659F900D112464E670E00E945F308901BE
:1037E000060F171FC601CB9623E04CE0B8010E94DC
:1037F000150FD10152968C91BAE08B02C0011124B1
:10380000F101EF59FF4F208164E670E0293011F09B
:103810006EE170E00E945F30462F6B300CF04AE0A2
:10382000B8016F5F7F4FC601CC9601E021E00E9496
:10383000450F11CE8091790190917A01F3E0969530
:103840008795FA95E1F7182F13701F5F96CE16E053
:1038500094CE17E092CE15E090CE18A21F8EF12CD8
:10386000E12CFECE8091AE07882319F089E09FE01D
:103870004CCE84E09FE00E943D0E8091B2078823E9
:1038800009F445CE6AE00E943F3080FF40CE8DE2D1
:1038900090E09093780180937701909376018093E4
:1038A00075018BEF9EE031CE2BED221625E032061E
:1038B00009F44BCE19E061CEEF92FF920F931F9364
:1038C000CF93DF93CDB7DEB7A0970FB6F894DEBFE6
:1038D0000FBECDBF7C01162FFC01EF59FF4F608357
:1038E000FC01208331834283538380E098E7A0E08A
:1038F000B0E084839583A683B783118610861386F0
:1039000012860487158617861686108A84E6828BAF
:10391000138AE25AFF4F11821082329610826FEFA3
:1039200070E080E090E00E94D512F701EE59FF4F61
:103930006083FAE11F9FB00111246B597F4E4AE169
:1039400050E0CE0101960E94A62FF701E45AFF4FE6
:103950008F8598899183808389859FEFF701948B68
:10396000858B168A81E0878B2A85108E218F128E97
:10397000838F2B85148E258F868F878F2C8510A2A1
:1039800021A382A383A32D8594A325A386A387A324
:103990002E8590A721A782A783A715A611AA46E086
:1039A00050E060EF75E0CE014B960E94A62FFE011D
:1039B0007B96D701D4968AE3E80EF11C81918D9312
:1039C000AE15BF05D9F7A0960FB6F894DEBF0FBEAF
:1039D000CDBFDF91CF911F910F91FF90EF90089590
:1039E0001F920F920FB60F9211248F939F93809185
:1039F000E1009091E100937F9093E10083FF0FC07D
:103A00001092E90091E09093EB001092EC0092E3A9
:103A10009093ED001092740198E09093F00082FF73
:103A200022C093E09093E9009091F200992319F05D
:103A30009AE39093E80090916501992341F0909169
:103A40006501915090936501911101C05D9A90912B
:103A50007301992341F090917301915090937301F8
:103A6000911101C0289A84FF18C08091E2008E7ED7
:103A700081608093E2008091E1008F7E8093E1007D
:103A8000809166018E7E8061809366019F918F9107
:103A90000F900FBE0F901F90189580FFF7CF809169
:103AA000E2008E7E80618093E2008091E1008E7E54
:103AB0008093E100809166018E7E8160E5CF1F9248
:103AC0000F920FB60F921124CF92DF92EF92FF92D6
:103AD0000F931F932F933F934F935F936F937F9316
:103AE0008F939F93AF93BF93EF93FF93CF93DF9306
:103AF000CDB7DEB76C97DEBFCDBF1092E9008091E5
:103B0000E80083FF25C068E0CE0145960E94310B96
:103B100082EF8093E8008D8987FF39C09091E8009B
:103B200090FFFCCF982F907609F034C19E894F8981
:103B3000588D2F89F88C911131C0803861F58091B2
:103B400064018093F1001092F1008EEF8093E80001
:103B50006C960FB6F894DEBF0FBECDBFDF91CF914C
:103B6000FF91EF91BF91AF919F918F917F916F9155
:103B70005F914F913F912F911F910F91FF90EF9087
:103B8000DF90CF900F900FBE0F901F9018959EEF73
:103B90009093E800C7CF1092F100D5CF913059F43F
:103BA0008111D3CF4130510581F6809164018D7F21
:103BB00080936401CACF933049F48111C6CF41305C
:103BC000510519F6809164018260F2CF953041F47D
:103BD0008091E80080FFFCCF20682093E300B5CF00
:103BE000963009F0A9C00B8D1C8D22E01092E900DF
:103BF0001092620110926101F2122EC010926001C7
:103C000010925F010E94000B1F8299E09983FA8253
:103C100091E09E8390EA98879AEF998720916101BD
:103C200030916201275F3F4F3C832B838D8310923D
:103C3000E9001092620110926101109360010093FB
:103C40005F0149E050E0BE016F5F7F4F80E00E945E
:103C5000DA0A0E94000B79CF1093600100935F0194
:103C60000E94170ADC0112960D911C910115110595
:103C700009F451C1D801ED91FC910480F581E02D4A
:103C8000BE016B5E7F4FC8010995009709F03EC1E8
:103C9000F80100851185EACFF3E0FF120EC08F898D
:103CA000882309F440C0823061F440E867E083EF84
:103CB0009EE00E94DB1F811148CF81E28093EB00E0
:103CC00047CF813029F440E86BE087EE9EE0F1CFEA
:103CD000833099F70E94170ADC011296ED90FC9050
:103CE0008E010F5F1F4F6801E114F10479F0D701D5
:103CF000ED91FC910680F781E02DB801C70109958F
:103D0000080F111DF701E084F184EECFD8011C9259
:103D1000F60101900020E9F73197BF016C197D0988
:103D200040E0C601C6CF61ED7EE0FB01449150E06A
:103D300080E80E94DA0A09CF973009F4BECF9830A4
:103D400021F481E08093F10000CF993009F0FDCE9D
:103D5000837009F0B2CFE2E2F1E081E031E096E376
:103D60002191222371F08093E9003093EB00DF0171
:103D700011972C912093EC009093ED008F5F87308A
:103D800079F78EE78093EA001092EA008F8980939A
:103D90007401DBCE8B8D9C8D1092E9001092620134
:103DA000109261019093600180935F01898D811170
:103DB00092C08E899D89913A49F4813209F07DCF74
:103DC00047E050E065E071E080E0B3CF913209F068
:103DD00074CF833269F48F89988DB0E0A0E080932E
:103DE000010190930201A0930301B0930401ADCEB1
:103DF000803269F48091E80082FFFCCF67E085E0C3
:103E000091E00E94310B8BEF8093E8009ECE8232CE
:103E100009F09BCE8F8980930C01EEEFFFE785912F
:103E200094918B3F9C4D51F1E0E0F8E080910501C9
:103E300090910601A0910701B0910801803B944048
:103E4000A105B105F1F480910C0180FD1AC0EE3F8F
:103E50008AE0F80789F587E797E791838083809167
:103E600060008093630188E19BE00FB6F894A89509
:103E7000809360000FBE9093600067CEEEEFFAE093
:103E8000D5CF808191818737974709F05ECEA8957D
:103E900080916000886180936000809163018093CD
:103EA0006000EE3F2AE0F20789F08091FE0A9091CF
:103EB000FF0A9183808349CE80819181873798075B
:103EC00051F29093FF0A8093FE0AC5CF1092FF0A29
:103ED0001092FE0A3ACE0E94170ADC0112960D914A
:103EE0001C910115110509F4E8CED801ED91FC9162
:103EF0000190F081E02DBE016B5E7F4FC8010995F6
:103F0000811123CEF80100851185EBCF1816190613
:103F10000CF41BCED2CEF1E0FF12BECE65ED7EE0FA
:103F200004CF1F920F920FB60F9211242F933F933D
:103F30008F939F93AF93BF938091570190915801B6
:103F4000A0915901B0915A013091560123E0230FFD
:103F50002D3758F50196A11DB11D20935601809370
:103F6000570190935801A0935901B0935A01809141
:103F70005B0190915C01A0915D01B0915E010196A1
:103F8000A11DB11D80935B0190935C01A0935D0125
:103F9000B0935E01BF91AF919F918F913F912F910F
:103FA0000F900FBE0F901F90189526E8230F0296D2
:103FB000A11DB11DD2CFEF92FF920F931F93CF930C
:103FC000DF93F82E192FE62E042F81E0860F880F3D
:103FD0000E94AC0A83E00E94AC0ACF2DD12FEC0ED8
:103FE000FD2EF11CCE15DF05B9F007FF13C0FE0151
:103FF00084910E94AC0A182F80E00E94AC0A8123B1
:1040000021968111EFCFDF91CF911F910F91FF90FA
:10401000EF9008958881EDCF81E0F5CFEBE7F5E0F3
:104020001382128288EE93E0A0E0B0E0848395834F
:10403000A683B7838CE291E0918380838FEF9FEF1B
:1040400095878487EBECF5E0138212828EE391E092
:1040500091838083158214828AE0E1E1F1E0A1ED91
:10406000B5E001900D928A95E1F710927C071092CD
:104070009E0710929F071092A0071092A10710921E
:10408000A2071092A3071092A4071092A5071092FE
:10409000A6071092A7071092A8071092A9071092DE
:1040A000AA071092AB071092AC071092AD071092BE
:1040B000AE071092AF071092B0071092B10710929E
:1040C000B2071092B3071092B4071092B50710927E
:1040D000B7071092B6070895CF93DF93CDB7DEB739
:1040E000C959D1090FB6F894DEBF0FBECDBF789481
:1040F00084B5826084BD84B5816084BD85B58260ED
:1041000085BD85B5816085BD80916E00816080939D
:104110006E00109281008091810082608093810006
:104120008091810081608093810080918000816016
:1041300080938000809191008260809391008091B3
:1041400091008160809391008091900081608093C4
:1041500090008091C10084608093C1008091C10073
:1041600082608093C1008091C10081608093C10012
:104170008091C30081608093C3008091C000826001
:104180008093C0008091C20081608093C2008091C2
:104190007A00846080937A0080917A0082608093B4
:1041A0007A0080917A00816080937A0080917A0011
:1041B000806880937A0010927401109264011092CA
:1041C00066018091D70081608093D70080EA809358
:1041D000D80089B5806189BD89B5826089BD09B47F
:1041E00000FEFDCF61E070E080E090E00E94630B94
:1041F0008091D8008F7C80618093D8008091E0000E
:10420000807F8093E0008091E1008E7E8093E100CA
:104210008DE08093E200559A209A81EC80937C0097
:1042200085B1806F85B984B1877E84B984B1876E8A
:1042300084B95E9A5F988AB1806D8AB9769A6E98D1
:1042400081B3806F81BB899880B38D7080BB80E51E
:104250008CBD81E08DBD85E090E00E944A0C5F9AA4
:1042600085E090E00E944A0C5E985C98E8EEFBE0E6
:1042700085EF9BE024912EBD00000DB407FEFDCF1D
:1042800031968E179F07B1F75C9A81E8809364009E
:10429000809165008160809365000E946D0C80E8CC
:1042A0000E94620C8823A9F05C9885EA8EBD00000C
:1042B0000DB407FEFDCF5C9A2E982F982D98809113
:1042C000640080628093640081E083BF889513BEA0
:1042D000FCCF84E00E94620C882309F448C02D982A
:1042E00084E80E94620C8823E1F00E94480C88EC6C
:1042F00090E00E944A0C2F9882E090E00E94B62F36
:104300008F3F29F06FEF82E090E00E94BE2F84EF94
:1043100091E00E944A0C2F9A84E80E94620C81115D
:10432000FBCF84E10E94620C8823E1F00E94480CDC
:1043300088EC90E00E944A0C2E9882E090E00E9467
:10434000B62F882329F060E082E090E00E94BE2F23
:1043500084EF91E00E944A0C2E9A84E10E94620C44
:104360008111FBCF88EC90E00E944A0CB2CF0E94F2
:10437000480C82E090E00E94D312882309F44CC0DC
:104380003E9A3F9A81E090E00E94D312182F147059
:1043900081FF0FC011112E98A1EFEA2EFF24FA948D
:1043A00080E40E94620C8823D1F12E9A2F9A0E94F9
:1043B000480C82E390E00E944A0C0E944F0C81114D
:1043C000F8CF80E18093000110929D07EDE7F7E0C0
:1043D00080E2DF011D928A95E9F71092670710923B
:1043E0006807109269078FB7F89440915701509170
:1043F00058016091590170915A018FBF1091540179
:10440000112309F469C01092540180E090E0892BD7
:1044100051F30E940000E7CF3E983F98B3CF11239D
:1044200031F024E0E216F10411F42E9A2F9881E085
:104430000E94170900E128E548E35BE0B70184E149
:1044400090E00E9426090E946D0C8FE090E00E948F
:104450004A0C3FEFE31AF30A49E1E416F10409F0CC
:104460009FCF112311F02F9A2D9880E991E00E949F
:104470004A0C0E94480C81E090E00E94D31280FF19
:1044800098CF8AE090E00E94D3129FEF980F9E3F52
:1044900008F08FCF22E330E030937801209377014A
:1044A00028E330E030937601209375010BE010E0B3
:1044B000682F8BEC95E00E94DA0DC8010E94D312A0
:1044C0000F5F1F4F0131110599F70E946D0C88EEA7
:1044D00093E00E944A0C6DCF80915501B42FB81B18
:1044E0008B2F90910001B91748F48F5F891708F05E
:1044F0008CCF81E083BF889513BE87CF81E0809306
:10450000540140935501E0907901F0907A01EFEF6A
:10451000EE1AFE0AF0927A01E0927901809153013D
:10452000809352010E944F0C80935301EBE7F1E01E
:1045300011111FEF00241193119311931193039400
:10454000D1F71092760110927501109278011092B5
:10455000770100919D0710E00E944F0CF801E3588D
:10456000F84F808380919D0790E001968F71992785
:1045700080939D07E091CF05F091D005E930F105DA
:1045800008F03CC0EA53FD4D0C947330CF22012358
:104590001A2462242725A92D5B2E9D2EE12E00E2F0
:1045A00020E848E05CE070E060E090E080E00E949D
:1045B000260984E190E090937801809377018DE261
:1045C00090E09093760180937501C7016EE170E0F1
:1045D0000E944B3060FF04C085EF9BE00E943D0EBF
:1045E00088E00E94570C882349F044244394512CBE
:1045F0005092D0054092CF051092A1070E946D0CF9
:1046000004CF8FE090E0909378018093770155E09C
:10461000652E712C70927601609275018EE09EE09D
:104620000E943D0E6091A0072AE1629FB001112413
:104630006F59704F4AE150E0CE0101960E94A62FBB
:104640008AE090E0909378018093770184E190E094
:1046500090937601809375018BE09EE00E943D0E61
:10466000CE0101960E94901288E09EE00E943D0ECD
:1046700086E0EBE1F1E0DE01AB59BF4F01900D9216
:104680008A95E1F7898DC158DF4F8883CF57D04095
:104690002F85388948E2429FC001439F900D112425
:1046A000092E000CAA0BBB0BC058DF4F9883C058D3
:1046B000D0408A8DCF57DF4F8883C158D040AE019C
:1046C0004B595F4F5A01CE0181589F4F7C0163E2E5
:1046D000C62ED12C7AE0872E912C1EE1E4E66E2EB8
:1046E000712C9092780180927701D0927601C092DD
:1046F0007501D5018D919D915D010E94901225E07B
:1047000040E2B6016F5F7F4F83E290E00E94150F99
:10471000F70181917F01819FC0011124B3010E94A3
:104720005F30462F6F310CF04EE1B6016E5F7F4F68
:1047300001E023E084E290E00E94450FFAE0CF0E12
:10474000D11C21E4C216D10461F66091A0078091CA
:104750003C06861781F02091D1053091D205409119
:10476000D3055091D4053D5D4F4F5F4F00E08BED79
:1047700095E00E945C1C80E09AE4A0E0B0E08093A9
:10478000DF059093E005A093E105B093E20580E09A
:1047900090E3A0E0B0E08093D5059093D605A09378
:1047A000D705B093D805E0917901F0917A01CF0156
:1047B0006CE070E00E944B30262F23702F5F36E0B4
:1047C000239FB0011124675E704FAF018BED95E020
:1047D0000E94960F40E061ED75E08BED95E00E9440
:1047E000EE1380E20E94570C882339F08091A007D5
:1047F000882319F081508093A00780E40E94570C11
:10480000882339F08091A007823018F48F5F80935D
:10481000A00788E00E94570C882309F4EFCE82E0BD
:1048200090E09093D0058093CF051092B707109237
:10483000B607E4CE6091A0074AE1649FB00111245D
:104840006F59704F4AE150E0CE018B599F4F0E9443
:10485000A62F109278011092770110927601109293
:104860007501CE018B599F4F0E94901283E29EE00A
:104870000E943D0E10927801109277018FE090E037
:104880009093760180937501E091A007F0E0EE0F20
:10489000FF1FE35EF14F65917491CE0101960E9476
:1048A000AF2FCE0101960E94901288E00E94570C13
:1048B000882309F4A3CE83E090E09093D005809301
:1048C000CF059CCE8EE190E09093780180937701A4
:1048D00089E190E090937601809375018BE29EE0F0
:1048E0000E943D0E8091A10790E001960E94A212C5
:1048F0008091B6079091B707892B31F488E790E053
:104900009093B7078093B6078091B6079091B70749
:1049100001979093B7078093B607892B31F088E011
:104920000E94570C882309F469CE6091A0075AE1D0
:10493000659FB00111246F59704F4AE150E0CE01DC
:1049400001960E94A62F00E020E034E640E050E00F
:104950006091A0078BED95E00E945C1C80E090E4E4
:10496000A0E0B0E08093DF059093E005A093E1051F
:10497000B093E2058A8D8093ED051092A207109204
:10498000A3071092A4071092A50784E290E0A0E08C
:10499000B0E08093A6079093A707A093A807B093D1
:1049A000A90780E098ECA0E0B0E08093AA0790937C
:1049B000AB07A093AC07B093AD071092AE0710926F
:1049C000AF071092B1071092B2071092B70710927A
:1049D000B6079091A107892F880F880F890F865FEE
:1049E0008093B0071092B3071092B4071092670734
:1049F00010926807109269071092720710927B0755
:104A000010927C0780E094E2A0E0B0E08093D105B2
:104A10009093D205A093D305B093D40580E090E3A2
:104A2000A0E0B0E08093D5059093D605A093D7057C
:104A3000B093D80584E690E09093DA058093D90589
:104A4000A4E0B0E0B093D005A093CF05D7CD80917E
:104A50009E07882319F0815080939E0780917C07E0
:104A6000882319F0815080937C0780919F078823C9
:104A700009F43FC1815080939F0780919F07811166
:104A8000BEC00091AE07011131C08091A207909184
:104A9000A307A091A407B091A5074091AA07509140
:104AA000AB076091AC077091AD0784179507A60717
:104AB000B707E4F02091B307211118C08115924E79
:104AC000A440B1050CF402C480916707882309F45F
:104AD000BAC380916807882309F4F4C380916907F9
:104AE000B2E0CB2ED12C882309F4AFC3E7E6F7E080
:104AF000CC57DF4FF983E883C458D0400EE316E06B
:104B0000512C412C3AE0632ECC57DF4FA881B9815C
:104B1000C458D0407D90CC57DF4FB983A883C45888
:104B2000D040772009F461C0F8018089882311F012
:104B30008150808BD80152968C9152971E966D9120
:104B40007C911F9718160CF485C46A30710549F0E2
:104B5000EAE0F0E01F96FC93EE931E978EE15096EC
:104B60008C93D80150968C9181113FC0CC57DF4F68
:104B7000E881F981C458D040319710828091AE0706
:104B8000882361F081508093AE07811107C0809126
:104B9000B307811103C08AE58093B20764E670E031
:104BA00080E090E00E94D512643171058105910585
:104BB00064F480917207882309F41DC480917B07F7
:104BC00021E030E0882309F418C48091B3078823DA
:104BD00009F43AC4F801EF59FF4F8081893009F098
:104BE00033C4882483948092B407FFEF4F1A5F0A7E
:104BF0000D591F4F23E04216510409F085CF8091D3
:104C0000ED0518160CF051C0C090DB05D090DC0506
:104C1000E090DD05F090DE058090DF059090E005E6
:104C2000A090E105B090E20590917C07EAE6F7E0FC
:104C30002CE737E04085442381F140815181628136
:104C4000738126013701441A550A660A770AB301AF
:104C5000A2014150514F6F4F7F4F4F3F5D41610562
:104C60007105D8F44481558166817781240135012D
:104C7000441A550A660A770AB301A2014150564FF9
:104C80006F4F7F4F4F3F53416105710530F4875E91
:104C900085360CF084E610869EE139962E173F0784
:104CA00049F68093ED0590937C078091ED05811185
:104CB00026C78091B6079091B707892B31F488E712
:104CC00090E09093B7078093B6078091B6079091D4
:104CD000B70701979093B7078093B607892B31F4F4
:104CE00088E090E09093D0058093CF050E944C1609
:104CF00085CC8091EB05882319F081508093EB05DA
:104D00006091E9057091EA056A30710591F520918D
:104D1000E3053091E4056901032E000CEE08FF085D
:104D20008091DB059091DC05A091DD05B091DE0559
:104D30008C0D9D1DAE1DBF1D8093DB059093DC0582
:104D4000A093DD05B093DE0549E0429FC001439F7B
:104D5000900D11240E945F307093E4056093E30589
:104D60008091EB0581118DCE1092EA051092E90534
:104D700084CECB010497069708F0B6C08091EB056E
:104D80006430710561F4811121C0E5E0F0E0F09339
:104D9000EA05E093E90585E08093EB0517C06530EF
:104DA000710551F4811112C086E090E09093EA05FC
:104DB0008093E9058AE0F0CF6630710509F072C092
:104DC000811104C01092EA051092E9058091E9056D
:104DD0009091EA058530910519F0089709F051CEB8
:104DE00007E617E03EE3C32E36E0D32E7801D80164
:104DF0008D918D01882309F44DC0F6018685978534
:104E00000A9709F447C0828918160CF043C08091B4
:104E1000DB059091DC05A091DD05B091DE054081B8
:104E2000518162817381841B950BA60BB70B892F6F
:104E30009A2FAB2FBB27A7FDBA95AC01BD01435EEE
:104E40005F4F6F4F7F4F4B3351056105710510F573
:104E50004091DF055091E0056091E1057091E20518
:104E600084809580A680B780481959096A097B0912
:104E70004150514F6F4F7F4F4F3F5D41610571056D
:104E800048F42091E705222339F1181619061A066D
:104E90001B0624F123E6C20ED11CEC14FD0409F01C
:104EA000A6CFEBCD6730710549F481118FCF88E033
:104EB00090E09093EA058093E9056ECF6830710524
:104EC00009F07ECF811182CF89E090E09093EA05CE
:104ED0008093E9058FE060CFB7FFDCCFB6018BEDA3
:104EE00095E00E94FE10D6CF1092E4051092E305E3
:104EF0001092E6051092E50580E20E94620C182FE0
:104F00008823C1F18091370690913806919581955B
:104F100091099093E4058093E30581E08093E70590
:104F200080E80E94620C8823B1F12091370630910D
:104F300038063195219531093093E6052093E50532
:104F4000182F88E00E94570C882379F144E050E044
:104F50005093EA054093E90585E08093EB05809145
:104F6000E9059091EA050197E9F51092EA0510929A
:104F7000E90536C080E40E94620C182F882381F274
:104F800080913706909138069093E4058093E3056D
:104F90001092E705C5CF80E10E94620C882389F258
:104FA0002091370630913806C7CF84E00E94570C15
:104FB000882341F087E090E09093EA058093E9052B
:104FC00088E0CBCF112359F28091E9059091EA0551
:104FD000892B41F481E090E09093EA058093E90504
:104FE0001092EC05A090E305B090E405A5010B2C10
:104FF000000C660B770B8091DB059091DC05A0918E
:10500000DD05B091DE05480F591F6A1F7B1F4093D5
:10501000DB055093DC056093DD057093DE05809120
:10502000E5059091E605092E000CAA0BBB0B00913B
:10503000DF051091E0052091E1053091E205800F38
:10504000911FA21FB31F8115E2E39E07A105B105C1
:105050000CF4E2C08093DF059093E005A093E10596
:10506000B093E2058091DF059091E005A091E10504
:10507000B091E20581309045A105B10564F080E072
:1050800090E5A0E0B0E08093DF059093E005A09369
:10509000E105B093E2058091B207882319F08150B1
:1050A0008093B2078091AE0781115AC08A019B019B
:1050B000165221093109C090D105D090D205E09057
:1050C000D305F090D405C016D106E206F3060CF025
:1050D00047C0D901C8018C199D09AE09BF09E3E099
:1050E000B595A79597958795EA95D1F78115E1E054
:1050F0009E07A105B10524F480E091E0A0E0B0E0B6
:105100008C0D9D1DAE1DBF1D081719072A073B07F3
:105110000CF490C08093D1059093D205A093D30551
:10512000B093D4058091D1059091D205A091D3057B
:10513000B091D405092F1A2F2B2F332727FD3A952D
:105140000093A6071093A7072093A8073093A907F9
:105150008093A2079093A307A093A407B093A507F9
:105160008091D1059091D205A091D305B091D4053D
:105170008C019D011C5321093109945CAF4FBF4F35
:105180004017510762077307CCF40093DB051093B7
:10519000DC052093DD053093DE052091E905309193
:1051A000EA052A30310551F4F501B7FE03C0F19547
:1051B000E195F109F093E405E093E3054091DB0507
:1051C0005091DC056091DD057091DE05841795072F
:1051D000A607B7070CF051CC8093DB059093DC0554
:1051E000A093DD05B093DE058091E9059091EA0575
:1051F0000A9709F042CC8091E3059091E40597FF6E
:1052000003C091958195910991958195910990930C
:10521000E4058093E30531CC412CF2E35F2E612C51
:10522000712C4092DF055092E0056092E10570928A
:10523000E20518CF0093D1051093D2052093D30532
:105240003093D4056FCFD12CC12C2091D105309152
:10525000D2054091D3055091D40534574F4F5F4F3D
:1052600083E68C9D70018D9DF00C112401E069E0B6
:10527000C701825C994F0E945C1C970125533A4FED
:105280007901F901E958FF4F80E090E4A0E0B0E037
:1052900080839183A283B38395E8E90EF11C84E6B1
:1052A000D7018C93F601E959F84F81E08083809310
:1052B000B3078093AE07E5E0F0E0F093D005E0930C
:1052C000CF0514CCCC24C394D12CBFCF1091A1070F
:1052D00016951E5F143008F013E057E6C52E57E010
:1052E000D52E6BECE62E65E0F62E882483947EE1C5
:1052F000772EE0E8AE2EBB24B394FAE06F2ED601F1
:105300008D916D0199249394900E811153C066E0A4
:1053100070E080E090E00E94D5126D5F7F4F8F4F6C
:105320009F4F2091D1053091D2054091D3055091E6
:10533000D40500FD5CC03B544109510901E02090B7
:10534000DB053090DC054090DD055090DE0522162F
:105350003306440655060CF000E0C7018D589F4FF8
:105360000E945C1C60E270E080E090E00E94D51238
:10537000F701E958FF4F605D7F4F8F4F9F4F982F88
:10538000872F762F662760837183828393833E966F
:105390007082E65BFF4FB182A0823496969C802D8E
:1053A00011248083F601319780828091B1078F5F4D
:1053B0008093B107092DB3E6EB0EF11C911608F4AA
:1053C0009ECF1093AE078091AA079091AB07A09152
:1053D000AC07B091AD07945DAE4FBF4F8093AA0765
:1053E0009093AB07A093AC07B093AD077FCB355B31
:1053F0004F4F5F4FA3CF30E020E0F8014081518153
:1054000062817381E9E0E29FC001E39F900D112466
:1054100085539A4FFC01E156FE4F408351836283CE
:105420007383D80114964D915D916D917C9117977E
:105430003496408351836283738389559E4F7724CA
:105440007394FC017082C1CB8091AF078F5F809312
:10545000AF07CBCB6A30710539F518962D913C9189
:1054600019976901032E000CEE08FF088D919D919C
:105470000D90BC91A02D8C0D9D1DAE1DBF1DF80182
:1054800080839183A283B38349E0429FC001439FFD
:10549000900D11240E945F3071876087808981118F
:1054A000A4CB17861686A1CBCB010497069708F0EC
:1054B00080C06430710509F067C050968C91509798
:1054C000811109C0E5E0F0E01F96FC93EE931E9772
:1054D00085E050968C93F80186859785059709F0AD
:1054E00084CB80819181A281B3814091DB05509171
:1054F000DC056091DD057091DE05841B950BA60B24
:10550000B70B892F9A2FAB2FBB27A7FDBA95AC01FC
:10551000BD01435E5F4F6F4F7F4F4B3351056105B8
:10552000710508F062CB4481558166817781C09016
:10553000DF05D090E005E090E105F090E2054C1920
:105540005D096E097F094150514F6F4F7F4F4F3FAB
:105550005D416105710508F048CBF80124852223DF
:1055600029F1181619061A061B060CF03ECB80917D
:10557000E9059091EA050A9709F437CB6BED75E0E0
:10558000C8010E94FE1031CB6530710509F02AC4B4
:1055900050968C91509781119ECFE6E0F0E01F96D7
:1055A000FC93EE931E9750966C9295CFB7FF1DCB50
:1055B000DECF4091DB055091DC056091DD057091F7
:1055C000DE058D909D90AD90BC901397CA57DF4F2C
:1055D00088829982AA82BB82C658D0408090DF051B
:1055E0009090E005A090E105B090E205CA56DF4F2B
:1055F00088829982AA82BB82C659D0401496AD9007
:10560000BD90CD90DC901797C657DF4FA882B98226
:10561000CA82DB82CA58D04019961C921E921897F3
:105620001B961C921E921A971801B0E62B0E311C85
:10563000F1012081222321F021502083712C0EC101
:105640008BEC95E0CE57DF4F19821882C258D040BC
:1056500030E020E02415350509F45FC0D901A959CF
:10566000B84FFC90FF2009F458C07C01B5E8EB0E60
:10567000F11CF701F0801F140CF04FC07C01F3E720
:10568000EF0EF11CD701CD90DD90ED90FC904A011A
:105690005B018C189D08AE08BF0875016401AFEF6F
:1056A000CA0EA7E2DA1EE11CF11CBFEFCB16BFE465
:1056B000DB06E104F10488F57C01E7E7EE0EF11C5E
:1056C000D701CD90DD90ED90FC90CA56DF4F8880D9
:1056D0009980AA80BB80C659D0408C189D08AE081E
:1056E000BF0875016401AFEFCA0EA3E1DA1EE11C29
:1056F000F11CBFEFCB16B7E2DB06E104F10468F45E
:10570000CE57DF4FE881F981C258D0403196CE574D
:10571000DF4FF983E883C258D0402F5F3F4F8D5948
:105720009F4F2330310509F095CF4A015B01CA57DD
:10573000DF4FC880D980EA80FB80C658D0408C18E3
:105740009D08AE08BF08CE56DF4F88829982AA8294
:10575000BB82C259D040750164012FEFC20E27E20F
:10576000D21EE11CF11C3FEFC3163FE4D306E10457
:10577000F104C8F5CA56DF4FC880D980EA80FB80A3
:10578000C659D040C657DF4F88819981AA81BB8115
:10579000CA58D040C81AD90AEA0AFB0A460157017A
:1057A0009FEF890E9EE0991EA11CB11CAFEF8A16D7
:1057B000ADE19A06A104B104B0F4CE57DF4FE88101
:1057C000F981C258D0403297A4F468E270E080E0DA
:1057D00090E00E94D512672B682B692B09F4CEC08C
:1057E000F10160822BCF40FEE0C0525E6F4F7F4FD1
:1057F000E2C064E670E080E090E00E94D5126C3375
:105800007105810591050CF7F801E45AFF4F80817D
:105810009181CE56DF4F88809980AA80BB80C25983
:10582000D04022273327281B390B181419041A04D7
:105830001B040CF09C01D80119963C932E931897E9
:105840001C141D041E041F041CF4919581959109DC
:10585000F80193878287E4E1D101EC93D8014D915F
:105860005D916D917C9181E0C090DB05D090DC056D
:10587000E090DD05F090DE05C416D506E606F706D5
:105880000CF080E0F801848786859785772009F4FD
:1058900030C1892B29F488248394912C978686869D
:1058A000F801808591856C01092E000CEE08FF0837
:1058B000C40ED51EE61EF71ED801C082D182E28238
:1058C000F38282849384092C000CAA08BB084481CB
:1058D000558166817781480D591D6A1D7B1D448362
:1058E0005583668377834091D1055091D2056091AD
:1058F000D3057091D4054A015B01FEE39F1AA1080C
:10590000B108525C6F4F7F4FC814D904EA04FB04FE
:105910009CF48D929D92AD92BC9213971E962D9100
:105920003C912A30310541F497FF03C09195819550
:105930009109F80191878087F80180819181A28186
:10594000B381481759076A077B070CF04EC940839B
:10595000518362837383868597850A9709F045C9C9
:105960008085918597FF03C09195819591099195C7
:1059700081959109F8019187808737C9E4E0F0E0CB
:10598000D8011F96FC93EE931E97FCE05096FC9373
:10599000509719961C921E9218971B961C921E9255
:1059A0001A978EE1D1018C9349CE5E51610971093C
:1059B0004114510461F0CA56DF4F88819981AA8150
:1059C000BB81C659D040965FAF4FBF4F0BC0CA5680
:1059D000DF4F88819981AA81BB81C659D0409A50F6
:1059E000A109B1098130F0E59F07A105B10524F0B7
:1059F00080E090E5A0E0B0E0CA57DF4F8880998052
:105A0000AA80BB80C658D040481959096A097B0949
:105A1000811522E39207A105B10524F480E092E309
:105A2000A0E0B0E0C657DF4F88809980AA80BB8095
:105A3000CA58D04088199909AA09BB096A017B0193
:105A400077FF07C0CC24DD247601C41AD50AE60A04
:105A5000F70A21E0C21625E0D206E104F1040CF4B5
:105A600040C0F801E45AFF4F208131811416150619
:105A70001606170694F5F80131872087F72CAC013C
:105A8000BD01B7FF07C044275527BA01481B590B72
:105A90006A0B7B0B413055406105710584F0F801BC
:105AA000E45AFF4F181619061A061B06E4F4808103
:105AB0009181D8011B969C938E931A97F72C6FE0D7
:105AC00070E080E090E00E94D5126B5F7F4F8F4FB7
:105AD0009F4FF10160837F2CC1CE31952195310913
