:100000000C94E7080C940F090C940F090C940F0939
:100010000C940F090C940F090C940F090C940F0900
:100020000C940F090C940F090C943E1D0C94AD1DFB
:100030000C940F090C940F090C940F090C940F09E0
:100040000C940F090C940F090C940F090C940F09D0
:100050000C940F090C940F090C940F090C94DF1FDA
:100060000C940F090C940F090C940F090C940F09B0
:100070000C940F090C940F090C940F090C940F09A0
:100080000C940F090C940F090C940F090C940F0990
:100090000C940F090C940F090C940F090C940F0980
:1000A0000C940F090C940F090C940F09474F4C49FD
:1000B0004154482753204D49474854204841530A4A
:1000C000524553544F5245442050454143452E20FC
:1000D0004E4F0A47414E4720444152452053484F16
:1000E00057204954530A4641434520414741494E10
:1000F0002E205448450A4349545920495320505210
:100100004F5445435445442E0054484520464952D7
:1001100045204F4620524556454E47450A495320F3
:100120005155454E434845442E2043494E4445527F
:100130000A5354414E445320494E205448452041CF
:10014000534845530A4F46205448452053594E447E
:1001500049434154452E0A53545245455453204176
:10016000524520434C4541522E005448452053549B
:1001700052454554532041524520534146452E0A8D
:100180005A454E4954482048415320434C45414E1E
:1001900045440A5550205448452054524153482E56
:1001A000204C41570A414E44204F52444552205260
:1001B000455455524E0A544F205448452043495403
:1001C000592E005448452046494E414C20424F5339
:1001D000532049530A4E4541522E2046494E495319
:1001E0004820544849530A414E4420534156452023
:1001F00054484520434954590A4F4E434520414EE7
:100200004420464F5220414C4C2100544845204444
:10021000455345525420484541542049530A4E4FB6
:100220005448494E4720434F4D5041524544205475
:100230004F0A5448452048454154204F46204241EA
:1002400054544C452E0A5448452046494E414C20B2
:1002500043495459204157414954532E005448456D
:1002600020494E445553545249414C205A4F4E4513
:100270000A495320434F4C442C2042555420594F97
:1002800055520A57494C4C204953204F4E2046495D
:1002900052452E0A4E4558543A205448452057415D
:1002A0005354454C414E442E004E41545552452026
:1002B00050524F5649444553204E4F0A52454655D9
:1002C000474520464F52204556494C2E205448451C
:1002D0000A5041544820544F205448452046414339
:1002E000544F52590A4953204E4F57204F50454EB4
:1002F0002E005448452043495459205354524545F3
:100300005453204152450A51554945544552204EB7
:100310004F572C20425554205448450A5245414CD1
:1003200020544852454154204C55524B530A4445A1
:100330004550455220494E20544845205041524B8B
:100340002E004920414D2054484520434954592707
:10035000530A54525545204D41535445522E0A4B91
:100360004E45454C204245464F52450A544845208B
:100370004543484F21005448452044455345525475
:10038000204255524945530A414C4C205345435253
:100390004554532E20414E440A534F4F4E2C204972
:1003A000542057494C4C0A4255525920594F552117
:1003B00000492057494C4C20435255534820594F2F
:1003C000550A4C494B4520524157204F52452E204B
:1003D000544849530A464143544F525920495320E7
:1003E000594F55520A4752415645594152442100EE
:1003F000594F55275245204452494654494E4720AB
:10040000494E544F0A44414E4745524F5553205789
:1004100041544552532E0A544845205041524B20D6
:1004200042454C4F4E47530A544F205448452053A1
:1004300057494654210043414E20594F55204845C5
:10044000415220544841543F0A49542049532054B2
:10045000484520534F4E47204F460A594F5552208A
:100460004445464541542E205448450A4349545971
:10047000204953204D5920535441474521005448A9
:10048000452046494E414C20434954590054484563
:100490002057415354454C414E4400544845204652
:1004A0004143544F525900544845205041524B004B
:1004B000544845204349545900474F4C49415448FA
:1004C00020484153205345454E0A544F4F204D413B
:1004D0004E5920494E4E4F43454E54530A485552AB
:1004E000542E2054484953204749414E540A5749F5
:1004F0004C4C20435255534820414E592047414EC1
:10050000470A494E2048495320504154482E004341
:10051000494E444552275320484F4D45205741539B
:100520000A4255524E45442042592047414E4753B6
:100530002E0A57495448204E4F5448494E47204CA4
:100540004546542C0A484520564F575320544F20B7
:1005500050555247450A5448452053545245455436
:100560005320425920464952452E005448452043C5
:10057000495459204841532046414C4C454E0A5459
:100580004F204348414F532E205A454E4954482C42
:100590000A412044495347524143454420434F5068
:1005A0002C0A54414B455320544845204C41572078
:1005B000494E544F0A484953204F574E2048414E08
:1005C00044532E00000006000C00120019001F000A
:1005D00025002B00310038003E0044004A00500046
:1005E00056005C00610067006D00720078007D00BD
:1005F000820087008C009000950099009D00A1006A
:10060000A500A900AD00B000B300B600B900BC0061
:10061000BF00C100C300C500C700C800CA00CB00AE
:10062000CC00CD00CE00CE00CF00CF00CF00CF0059
:10063000CF00CF00CE00CE00CD00CC00CB00CA0052
:10064000C800C700C2BE51234B29C6BE1964285535
:10065000C2BE40404040BEBE64195528C2BE4040A4
:100660004040C0C0EA26622EDCB758FC4022C0D20F
:10067000502A54F2C00236384A34ACA8161E2E1E38
:10068000C0023E024030C0024A3638FF000000007F
:10069000003E5B4F5B3E3E6B4F6B3E1C3E7C3E1C08
:1006A000183C7E3C181C577D571C1C5E7F5E1C004E
:1006B000183C1800FFE7C3E7FF0018241800FFE705
:1006C000DBE7FF30483A060E2629792926407F05C8
:1006D0000507407F05253F5A3CE73C5A7F3E1C1CDE
:1006E00008081C1C3E7F14227F22145F5F005F5F9E
:1006F00006097F017F006689956A6060606060948A
:10070000A2FFA29408047E040810207E201008088E
:100710002A1C08081C2A08081E101010100C1E0C99
:100720001E0C30383E3830060E3E0E06000000002B
:100730000000005F00000007000700147F147F1412
:10074000242A7F2A12231308646236495620500057
:1007500008070300001C2241000041221C002A1C43
:100760007F1C2A08083E080800807030000808082E
:100770000808000060600020100804023E5149454E
:100780003E00427F400072494949462141494D336C
:100790001814127F1027454545393C4A49493141D3
:1007A000211109073649494936464949291E0000A1
:1007B00014000000403400000008142241141414F6
:1007C0001414004122140802015909063E415D59E2
:1007D0004E7C1211127C7F494949363E41414122EB
:1007E0007F4141413E7F494949417F090909013E15
:1007F000414151737F0808087F00417F410020403C
:10080000413F017F081422417F404040407F021C4D
:10081000027F7F0408107F3E4141413E7F09090964
:10082000063E4151215E7F09192946264949493230
:1008300003017F01033F4040403F1F2040201F3FF6
:100840004038403F6314081463030478040361597B
:10085000494D43007F4141410204081020004141BD
:10086000417F040201020440404040400003070869
:100870000020545478407F28444438384444442865
:10088000384444287F385454541800087E0902180C
:10089000A4A49C787F0804047800447D4000204094
:1008A000403D007F1028440000417F40007C0478D8
:1008B00004787C080404783844444438FC18242420
:1008C0001818242418FC7C080404084854545424A0
:1008D00004043F44243C4040207C1C2040201C3C1D
:1008E0004030403C44281028444C9090907C446414
:1008F000544C4400083641000000770000004136A7
:10090000080002010204023C2623263C1EA1A1612C
:10091000123A4040207A385454555921555579415E
:100920002154547841215554784020545579400C35
:100930001E52721239555555593954545459395516
:100940005454580000457C410002457D4200014559
:100950007C40F0292429F0F0282528F07C545545C6
:10096000002054547C547C0A097F49324949493259
:100970003248484832324A4848303A4141217A3A6E
:1009800042402078009DA0A07D39444444393D4038
:1009900040403D3C24FF2424487E4943662B2FFCE5
:1009A0002F2BFF0929F620C0887E09032054547993
:1009B000410000447D413048484A32384040227A64
:1009C000007A0A0A727D0D19317D2629292F2826E1
:1009D0002929292630484D402038080808080808E9
:1009E0000808382F10C8ACBA2F102834FA00007B42
:1009F000000008142A142222142A14089500220048
:100A000095AA005500AAAA55AA55AA000000FF0001
:100A1000101010FF00141414FF001010FF00FF103E
:100A200010F010F0141414FC001414F700FF000070
:100A3000FF00FF1414F404FC141417101F10101FEF
:100A4000101F1414141F00101010F0000000001FDD
:100A5000101010101F10101010F010000000FF10E8
:100A60001010101010101010FF10000000FF1400E4
:100A700000FF00FF00001F10170000FC04F4141416
:100A80001710171414F404F40000FF00F7141414E2
:100A900014141414F700F7141414171410101F1062
:100AA0001F141414F4141010F010F000001F101F85
:100AB0000000001F14000000FC140000F010F010F3
:100AC00010FF10FF141414FF141010101F0000006A
:100AD00000F010FFFFFFFFFFF0F0F0F0F0FFFFFF6E
:100AE0000000000000FFFF0F0F0F0F0F38444438C5
:100AF000447C2A2A3E147E02020606027E027E0200
:100B000063554941633844443C04407E201E20061E
:100B1000027E020299A5E7A5991C2A492A1C4C725B
:100B200001724C304A4D4D303048784830BC625AE2
:100B3000463D3E494949007E0101017E2A2A2A2A72
:100B40002A44445F444440514A444040444A51404E
:100B50000000FF0103E080FF000008086B6B08360F
:100B600012362436060F090F060000181800000080
:100B70001010003040FF0101001F01011E00191D6F
:100B80001712003C3C3C3C0000000000F0F89C8E3A
:100B90008783878E9CF8F00000FEFF0303030303A6
:100BA000070EFCF80000FEFF0303030303070EFC1F
:100BB000F80000FFFF00000000000000FFFF000041
:100BC000FEFF8383838383C7EE7C380000F8FC0E2E
:100BD00007030303070EFCF800003F7FE0C080809E
:100BE000C0E07F3FFFFF01010101010101FFFF00A4
:100BF00000FFFF0C0C0C0C1C3E77E3C100007FFFD4
:100C0000C0C0C0C0C0E0703F1F00001F3F70E0C008
:100C1000C0C0E0703F1F00007FFFC1C1C1C1C1E380
:100C2000773E1C00001F3F70E0C0C0C0E0703F1F57
:100C3000000000000001FFFF01000000D5F08D144E
:100C4000A1C881CFD9F1AF20005052455353204164
:100C5000006A010901AC00564943544F5259210022
:100C60005052455353204100F202A9025D020B028B
:100C7000C301535441474520434C45415221005044
:100C800052455353204120544F2046494748540071
:100C90003604F003B103760342033A00B004A7041C
:100CA0009B048D047E04535441474520006B050F7F
:100CB00005B9042053544F52593A00203E003C20BD
:100CC0000053454C4543542046494748544552003B
:100CD0005052455353204120544F205354415254B5
:100CE0000080200000C060B0D86868282828282824
:100CF000382838282828382828282C34FCECF43CBC
:100D000038382828282828383828283E363C363BCA
:100D10003F3C363EECF43C36363F393BFEF6C2DE15
:100D2000687838282820303028282828282828289B
:100D300068F8D8E8F838383838383838F8E8B8D8A3
:100D4000E87838383838383838B8F8F8E8E8783893
:100D5000383838383838383828282828282828E8D3
:100D6000E808F800C07FE0FFBF9898989898989B93
:100D70009B9B9B9B9B9B8383838383C3E7FFFFFF9B
:100D8000FFFFFFFFFFFF80808080808080FFFF03E8
:100D900003030303FFFF808080808080FFFFFFE06C
:100DA000C0808080809F9F9B9B9B9B9B9F9E8E8EE5
:100DB0008E8E8EFFFF80808080808080F1F111B167
:100DC000F0E0C0808080868E9FFFFDFF9F989898FE
:100DD0009898989B9B9B9B9B9B8383838383C3FF58
:100DE0007F80FFFE03FCFDFFC78301010101F9F9CC
:100DF000D9D9D9D9F9F90101010307FFFF0101018F
:100E00000101019999999999999999F9F9FF7F2087
:100E10001C040484FDFFFF010101010181999999DE
:100E200099191901010181C1E3DFCE6C1F0703038A
:100E3000818199999999998101010101FFFF070326
:100E40000101F1F9D9D9F9F9D99919191919FFFF3E
:100E50000101010101D9D9D9D9D9F9F9D9ADB7FD24
:100E60004FC0000102050D1B372F2E2E2C282828DD
:100E7000282828282828282828E8ECBFBF78587870
:100E80002828282F201E020202020202020300006C
:100E90000000007F6D375F78382838342F3F3F3FA0
:100EA0003D1F3E2C282828392B2F7B5878F8BC9ED4
:100EB000DF6F3F0F1F193F2F282828282F2F2E2C98
:100EC0002828282828282828684878F8B8FCEFBF60
:100ED000BAFA4E7E5E5C5C5C7C741C3E3A2A2D2F16
:100EE0002F2F3C47414D45204F56455200050607E0
:100EF0000809080B000202020000090400000102B8
:100F0000020000052400100105240101010424024F
:100F100006052406000107058103100040090401AD
:100F200000020A00000007050202400000070583D6
:100F3000024000000403090412010002EF02014014
:100F40004123368000010102030141726475696E1C
:100F50006F204C4C430041726475626F7900474FBB
:100F60002E2E2E202D3E00474F2D3E00464947484D
:100F7000542100424F53530048503A00C2BE5123FF
:100F80004B29C6BE19642855C2BE40404040BEBE73
:100F900064195528C2BE40404040C0C0EA26622EB7
:100FA000DCB758FC4022C0D2502A54F2C002363876
:100FB0004A34ACA8161E2E1EC0023E024030C002AB
:100FC0004A3638FF5A454E49544800000C060A0A72
:100FD0000C0C4C0100010002000100003C4643499A
:100FE0004E44455200000B0508080A0A1902020384
:100FF0000201010201002832474F4C494154480088
:101000000F080C0C0E0ECC000100010202010300BF
:101010005A64564F4C54000000000C060E0E0C0C87
:1010200019010004030001000200323C4B41474516
:10103000000000000C0609090B0B800102010201EF
:10104000000201003737534952454E0000000B069D
:101050000A0A0C0C660100020001010000002D418B
:1010600044524946540000000C060A0A0C0C330195
:101070000204030200010000414B5455534B000091
:1010800000000D070B0B0D0DE6000101020202022C
:101090000300505A4A414445000000000B0609096C
:1010A0000B0BB3010002010101010100323C454379
:1010B000484F000000000C060A0A0C0C4C0102000C
:1010C0000000000002003C465A454E4954480000CA
:1010D0000C060A0A0C0C4C01000100020001000081
:1010E0003C4643494E44455200000B0508080A0A95
:1010F000190202030201010201002832474F4C4944
:10110000415448000F080C0C0E0ECC0001000102E7
:10111000020103005A64564F4C54000000000C06B4
:101120000E0E0C0C19010004030001000200323CF9
:101130004B414745000000000C0609090B0B8001DC
:1011400002010201000201003737534952454E00A7
:1011500000000B060A0A0C0C6601000200010100E7
:1011600000002D4144524946540000000C060A0A72
:101170000C0C33010204030200010000414B5455E2
:10118000534B000000000D070B0B0D0DE600010195
:10119000020202020300505A4A4144450000000086
:1011A0000B0609090B0BB30100020101010101004B
:1011B000323C4543484F000000000C060A0A0C0C64
:1011C0004C0102000000000002003C465C2011249B
:1011D0001FBECFEFDAE0DEBFCDBF11E0A0E0B1E08F
:1011E000EAE8F4E602C005900D92A235B107D9F7FE
:1011F00028E0A2E5B1E001C01D92A534B207E1F7F5
:1012000018E0C7EED8E004C02197FE010E942E32FC
:10121000C63ED107C9F70E94C5200C9443320C94F6
:101220000000480F592F511D1416150684F58038FB
:1012300091056CF597FF02C090E080E041385105C0
:1012400014F040E850E0481BFB01E770FF2721E065
:1012500001C0220FEA95EAF777FF02C0695F7F4F6E
:10126000FB0133E0F595E7953A95E1F7F695FE2F0A
:10127000EE27F795E795E80FF91FED57FE4F415020
:1012800030F08191DF011197822B8C93F8CF089574
:10129000E3E8F1E0A0E0B8E000800EBC8111012C91
:1012A0001197A0FDFDCF0192B9F70DB408954F92AB
:1012B0005F926F927F928F929F92AF92BF92CF92E6
:1012C000DF92EF92FF920F931F93CF93DF93FB0177
:1012D000E00FF11D1E161F060CF08AC06034710568
:1012E0000CF086C0DB0177FF04C0AA27BB27A61B32
:1012F000B70BA770BB27EB0177FD2796E3E0D595E9
:10130000C795EA95E1F777FF07C0219768E070E09D
:10131000FB01EA1BFB0BDF0130E006950695069505
:10132000802E912C8A01AE015695542F4427579553
:101330004795480F591F4D575E4FBE01E0E8F0E05A
:101340007F01E81AF90A88E090E03C016A1A7B0AFA
:101350006F3FFFEF7F070CF43BC090E080E05A0145
:10136000E0E8AE0EB11C6F3F760709F452C0FC01F5
:10137000E00FF11FE4916A01C80ED91EF0E02F01C1
:101380000A2E01C0440C0A94EAF7F6015080452861
:1013900040821097B1F06730710599F0F801E80FBD
:1013A000F91FE4916501C80ED91EF0E02F01062C4B
:1013B00002C0559447940A94E2F7F60150804528FC
:1013C00040820196821793071CF4E816F90659F635
:1013D0006F5F7F4F020F131F40585F4FCB018C1B75
:1013E0009D0B8815990524F46830710509F0B0CF7C
:1013F000DF91CF911F910F91FF90EF90DF90CF90F1
:10140000BF90AF909F908F907F906F905F904F9024
:101410000895109709F0C2CFD4CFFC0180917E01CE
:10142000882311F13FB7F89482E08093E90020917E
:10143000F200822F90E01816190614F481E090E073
:10144000882339F0289844E640937D014091F100CB
:101450004083222339F02091F200211103C02BE6B2
:101460002093E8003FBF08958FEF9FEF08952FB7B7
:10147000F89483E08093E9009091E800892F8072CE
:1014800095FF04C09091F20080E4891B2FBF08955E
:101490008091750181110DC082E08093710184E01B
:1014A00080937201109274011092730181E0809315
:1014B000750181E791E00895CF93DF931F92CDB737
:1014C000DEB76983DC01ED91FC910280F381E02DB0
:1014D00041E050E0BE016F5F7F4F09950F90DF91B3
:1014E000CF91089583E08093E9008091F2008823F2
:1014F00019F08AE38093E80008950E94370A90E08B
:101500000895CF93DF931F92CDB7DEB7FC0184859A
:10151000958597FD08C02FEF3FEF358724870F9003
:10152000DF91CF910895CE0101960E940D0A019797
:1015300019F4898190E0F3CF8FEF9FEFF0CF0F93F5
:101540001F93CF93DF931F92CDB7DEB78C01FC01C1
:101550008485958597FF0BC0CE0101960E940D0AE8
:10156000019771F4898190E0F80195878487F801EB
:10157000848595850F90DF91CF911F910F910895EC
:101580008FEF9FEFF1CFFC018485958597FD0BC010
:101590009FB7F89482E08093E9008091F2009FBFAA
:1015A00090E0019608959FB7F89482E08093E90057
:1015B0008091F2009FBF90E0089540916B0150919F
:1015C0006C012091690130916A0142175307B4F40C
:1015D0009091E8009570E1F39091E80092FD19C0B8
:1015E0008093F10080916B0190916C0101968F7353
:1015F0009927892B19F48EEF8093E80080916B0175
:1016000090916C01019690936C0180936B0181E045
:10161000089580E00895DF92EF92FF920F931F9359
:10162000CF93DF93D82E8A01EB017B01E40EF51EE8
:10163000CE15DF0559F0D7FE12C0FE0184910E943D
:10164000DD0A21968111F4CF0FEF1FEFC801DF9162
:10165000CF911F910F91FF90EF90DF9008958881B7
:10166000EECF0F931F93CF93DF931F92CDB7DEB7CB
:1016700082E0898342E450E062EF7EE080E80E94ED
:101680000B0B0E94480ADC0112960D911C9101156A
:10169000110589F0D801ED91FC910280F381E02DD4
:1016A000BE016F5F7F4FC801099597FD04C0F80127
:1016B00000851185ECCF89810F90DF91CF911F912B
:1016C0000F910895615030F02091F100FC012083CA
:1016D0000196F8CF289884E680937D0108953FB75E
:1016E000F8948091650190916601A0916701B09195
:1016F000680126B5A89B05C02F3F19F00196A11DD2
:10170000B11D3FBFBA2FA92F982F8827BC01CD014B
:10171000620F711D811D911D42E0660F771F881FAA
:10172000991F4A95D1F708958F929F92AF92BF92D9
:10173000CF92DF92EF92FF926B017C010E946F0BC0
:101740004B015C01C114D104E104F104B9F00E9421
:101750006F0B681979098A099B09683E73408105F6
:10176000910580F321E0C21AD108E108F10888EE62
:10177000880E83E0981EA11CB11CE4CFFF90EF906F
:10178000DF90CF90BF90AF909F908F9008958F92F1
:101790009F92AF92BF92CF92DF92EF92FF920F9300
:1017A0001F93CF93DF936C017B018A0180910C0121
:1017B000882309F45CC080917E01882309F457C016
:1017C0008091700180FF05C08091E000826080936D
:1017D000E000E801B12C8AEFA82E93E0892E2AE3DD
:1017E000922E209711F4BB20D9F10E94370A811163
:1017F0000AC0AA94AA20D9F161E070E080E090E0EC
:101800000E94940BEECF8C171D0611F00CF08C2F5C
:101810009FB7F8948092E9002091E80025FD02C06E
:101820009FBFDFCF282F30E0C21BD30BF7018150C1
:1018300020F041914093F100FACFE20EF31EBB205D
:1018400021F09092E800B12CEBCF8091E80085FD6B
:10185000E7CF9092E800BB24B394209709F3F3CF2D
:101860005D9884E680936F01101611063CF081E0CC
:1018700090E0F6019383828310E000E0C801DF91DD
:10188000CF911F910F91FF90EF90DF90CF90BF907D
:10189000AF909F908F900895AF92BF92CF92DF92BA
:1018A000EF92FF920F931F93CF93DF936C017B0115
:1018B0008B01040F151FEB015E01AE18BF08C017A6
:1018C000D10759F06991D601ED91FC910190F08119
:1018D000E02DC6010995892B79F7C501DF91CF91DC
:1018E0001F910F91FF90EF90DF90CF90BF90AF903E
:1018F00008952D9A0895BC0190E080E00C94940B1B
:101900008FB18095807F669B88601C9B8460089562
:1019100090915601982329F490915701982381E0E2
:1019200009F480E00895CF93C82F0E94800C982F6F
:101930009C2381E09C1380E0CF91089580E00C947B
:10194000480980389105B8F460347105A0F420E1AD
:1019500091E061FD94E060FD990F62FD9295687FD2
:10196000269FD0011124A80FAD57BE4F8C9140FF88
:1019700003C0892B8C93089590958923FBCF2F92D8
:101980003F924F925F926F927F928F929F92AF920F
:10199000BF92CF92DF92EF92FF920F931F93CF935C
:1019A000DF93EC018B017A016901C61AD70AD7FED1
:1019B00003C0D194C194D10847018C1A9D0A97FEA7
:1019C00003C09194819491088C149D0454F49E2D2D
:1019D0008F2D7901292F382F9C2F8D2FE801092F6A
:1019E000182FEC16FD0654F4902F812F8901292F12
:1019F000382F9C2F8D2FE701E92EF82E17012C1A76
:101A00003D0A2901401A510A57FE03C051944194DE
:101A10005108310137FE03C08FEF681A780A7594B8
:101A200067948FEF021713070CF481E0A82E880F3C
:101A3000BB08EC16FD06A4F041E0BE01C8018C1401
:101A40009D0414F0B801CE010E94A10C6418750821
:101A500077FE04C00A0D1B1D620C731C2196E9CF92
:101A6000DF91CF911F910F91FF90EF90DF90CF907A
:101A7000BF90AF909F908F907F906F905F904F90AE
:101A80003F902F9008952F923F924F925F926F92C6
:101A90007F928F929F92AF92BF92CF92DF92EF92FE
:101AA000FF920F931F93CF93DF9300D000D0CDB759
:101AB000DEB77C018B01242F30E03C832B8381E057
:101AC00090E05C01A21AB30A190131942194310803
:101AD000220C331CB901600F711F41E0C7010E9445
:101AE000A10CB8018B819C81681B790B41E0C70177
:101AF0000E94A10C41E0B8018B819C818E0D9F1D3D
:101B00000E94A10C41E0B801C7012B813C81821BDE
:101B1000930B0E94A10CD12CC12C81E090E09A8300
:101B200089832B813C81C216D3060CF05DC0B7FCC3
:101B300009C0215031093C832B8332E0230E311C34
:101B4000A20CB31C8FEFC81AD80A29813A812E5FE4
:101B50003F4F3A832983A20EB31E37016C0C7D1CC4
:101B600041E08B809C80800E911EB401C3010E94D5
:101B7000A10C27014C185D0841E0B401C2010E948C
:101B8000A10C41E048018B819C81881A990AB4011B
:101B9000C3010E94A10C41E0B401C2010E94A10C4A
:101BA0004601800E911E41E0B4016B807C806E0C7A
:101BB0007F1CC3010E94A10C41E0B40127012B81CD
:101BC0003C81421A530AC2010E94A10C48018C18A0
:101BD0009D0841E0B401C3010E94A10C41E0B401A1
:101BE000C2010E94A10C9DCF0F900F900F900F90FB
:101BF000DF91CF911F910F91FF90EF90DF90CF90E9
:101C0000BF90AF909F908F907F906F905F904F901C
:101C10003F902F9008958F929F92AF92BF92CF9254
:101C2000DF92EF92FF920F931F93CF93DF936D306C
:101C300089F0C0907F01D09080016A30D1F4109279
:101C400082011092810188E0C80ED11CD0928001DF
:101C5000C0927F0181E090E0DF91CF911F910F91C1
:101C6000FF90EF90DF90CF90BF90AF909F908F90BC
:101C700008950091810110918201E5E06E9FE001DD
:101C80001124C457D94F4801F12CF5E0E12CFF167F
:101C900029F0CE010196FE01E490EC01B12CA12CBB
:101CA0004E2D4170B6016A0D7B1DC4010E94A10C2E
:101CB000E694FFEFAF1ABF0A88E0A816B10481F7D7
:101CC000F394EFEF8E1A9E0AF6E0FF12DECF0A5F62
:101CD0001F4F1093820100938101BCCF0F931F937C
:101CE000CF93DF938C01D0E0C0E0F801EC0FFD1F33
:101CF0006491662341F083ED95E00E940B0E892BE1
:101D000011F02196F2CFCE01DF91CF911F910F916B
:101D10000895DF92EF92FF920F931F93CF93DF937B
:101D20007C01D22E8B01040F111DEB0177FF02C045
:101D3000D0E0C0E0C8010134110514F080E490E067
:101D4000C817D9073CF44D2DBE01C7010E94A10C54
:101D50002196F0CFDF91CF911F910F91FF90EF90DF
:101D6000DF9008952F923F924F925F926F927F92F1
:101D70008F929F92AF92BF92CF92DF92EF92FF929B
:101D80000F931F93CF93DF9300D01F92CDB7DEB791
:101D90006C015B01842F90E09B838A83440F4F5F2B
:101DA000681B790B20E0C6010E94890E01E010E05B
:101DB000EA81FB810E1B1F0B1F0131942194310816
:101DC000220C331C66246394712CF12CE12C17FD3A
:101DD0000AC08A819B8101979B838A8392E0290EA6
:101DE000311C020D131DEFEFEE1AFE0AF2E06F0E2A
:101DF000711C060D171D8A81880F8F5F898320E073
:101E0000482F25018A819B81481A590AB201C701CE
:101E10008C0D9D1D0E94890E45018E189F0820E0A3
:101E2000462DB4018A819B818C0D9D1D0E94890ED7
:101E300020E04981B201C6018E199F090E94890ED6
:101E400020E0462DB401C601EA81FB818E1B9F0B69
:101E50000E94890E8A819B81E816F9060CF4B7CF9F
:101E60000F900F900F90DF91CF911F910F91FF90E6
:101E7000EF90DF90CF90BF90AF909F908F907F902A
:101E80006F905F904F903F902F900895EF92FF9248
:101E90000F931F93CF93DF937C018B01C42FD22F1D
:101EA0006034710510F40E941109B8016D0F711DA5
:101EB000615071096034710520F44C2FC7010E94F4
:101EC000110921E04D2FB801C7010E94890EC701F9
:101ED0008C0F911D21E04D2FB8010197DF91CF911B
:101EE0001F910F91FF90EF900C94890ECF92DF928B
:101EF000EF92FF920F931F93CF93DF936B01122FFB
:101F0000EC017C01E40EF11CCE15DF0544F4202F1A
:101F1000412FB601CE010E94890E2196F5CFDF91A7
:101F2000CF911F910F91FF90EF90DF90CF90089588
:101F3000089590E080E00895E82FEF7382958695EC
:101F400086958370F0E039F4EE0FFF1FEC53FA4FE3
:101F5000859194910895813039F48FE390E09C014C
:101F60002E1B3F0BF901F0CF823051F4EE0FFF1F13
:101F7000EC53FA4F8591949191958195910908952B
:101F80008FE390E09C012E1B3F0BF901EFCF2F92C6
:101F90003F924F925F926F927F928F929F92AF92F9
:101FA000BF92CF92DF92EF92FF920F931F93CF9346
:101FB000DF93CDB7DEB72D970FB6F894DEBF0FBE17
:101FC000CDBF8C017B015E834D832A83FC01EE57DC
:101FD000FF4F80818C5F80830E949C0F26E0959547
:101FE00087952A95E1F7D80195964C9150E070E0DD
:101FF00060E0AA24B42EC52ED62EAF82B886C9863C
:10200000DA868983B82EBB0CBB82282F87FF02C0DB
:1020100021E0280F25952C83AD80BE80B694A7942F
:10202000B694A7949501237033273E832D835801DE
:10203000180134E3230E311C47011C868A8181502C
:102040008B87D50155968C91811124C0CC84C11009
:10205000A6C0F4019491CA80C11011C0DC84D110D3
:1020600002C0C9809C0D8C858250823010F4DB80C8
:102070009D198C858450823010F4CC809C0DD10148
:102080002C91892F821B31E0380F333008F0A0C02B
:102090009C9303C02C852630E0F2D101CD901D0128
:1020A000CD86D8011C962C91222321F080E8D82ED1
:1020B000DC18DD86D5015496EC91EF3F09F0A3C002
:1020C000F801C080D180E280F38044805580668032
:1020D00077808F819885A985BA85481A590A6A0A36
:1020E0007B0A868597858330910519F00D970697B1
:1020F00020F494E0590E611C711CAB85A43040F4AF
:10210000ED81FE81EF2B21F4F1E05F1A6108710887
:102110003C85343009F064C080E09EEFAFEFBFEF44
:10212000222321F080E092E0A0E0B0E0C80ED91EAA
:10213000EA1EFB1E8D85805C0E949C0FF50125899F
:1021400030E0DC010E943C326627C60ED71EE81E36
:10215000F91EC4AED5AEE6AEF7AE8D850E949C0FDB
:10216000F501E45AFF4FD50155962C9130E0DC0182
:102170000E943C326627460E571E681E791E40821A
:10218000518262827382BC85BF5FBC87E4E0AE0E81
:10219000B11CFFEF8F1A9F0AB83009F052CF2D966D
:1021A0000FB6F894DEBF0FBECDBFDF91CF911F9168
:1021B0000F91FF90EF90DF90CF90BF90AF909F90E6
:1021C0008F907F906F905F904F903F902F900895E9
:1021D00087FD8D5F85958595820FF10180835DCFA9
:1021E0008C85853009F0A6CF80E092E0A0E0B0E0D9
:1021F000211104C080E09EEFAFEFBFEFC81AD90AEB
:10220000EA0AFB0A97CF94E0E902F0011124E00FFB
:10221000F11FC4ACD5ACE6ACF7ACE45AFF4F40803C
:10222000518062807380AC85A23009F475CFBC8583
:10223000B33009F07FCFD8CF4F925F926F927F92E9
:102240008F929F92AF92BF92CF92DF92EF92FF92C6
:102250000F931F93CF93DF93CDB7DEB7E4970FB6FD
:10226000F894DEBF0FBECDBFFB0128E02093260807
:1022700025E020932708DC0114964D915D916D9126
:102280007C9117970481158126813781401B510B62
:10229000620B730B77FF07C0709560955095419561
:1022A0005F4F6F4F7F4F41305F40610571050CF00C
:1022B00015C140815181628173810091D9051091CE
:1022C000DA052091DB053091DC05401B510B620BD8
:1022D000730B452F562F672F772767FD7A95455C3F
:1022E0005F4F4737510508F0F9C07F018C016C0141
:1022F000E1E8CE0ED11CD6016C913AE1B32E6B9D74
:10230000B00111246C53704F4AE150E0CE014B965E
:102310000E946131F701EF57FF4F60816B9DB00163
:1023200011246C53704F4AE150E0CE0101960E9497
:102330006131F8018685978548E050E08530910548
:1023400031F04CE050E0089711F04AE050E0D8013D
:1023500051968C9151978F5F843008F06CC05196E4
:102360008C93D80151962C91622F70E0685F7F4F5B
:10237000649FC001659F900D749F900D11246AE0C9
:1023800070E00E941A323BA9369FC001379F900D22
:1023900011246CE370E00E941A32F6014081FAE1E8
:1023A0004F9FD001112490E080E030E0A053BF4E59
:1023B000FD01E80FF91FE4913E0F0196863091056B
:1023C000B9F7369FC001379F900D11246EE370E07E
:1023D0000E941A3236E4369FC001379F900D1124B7
:1023E0006A8D70E0625E7F4F0E941A3280913D08D4
:1023F000481325C030E085E0033E180729F13FE08F
:10240000369FC001379F900D11246AE070E00E9452
:102410001A3231E04091290850E0465F5F4F469FF5
:10242000C001479F900D569F900D11246AE070E007
:102430000E941A3209C081E0F801818B92CF30E00E
:10244000A5E0033E1A0731F7822F90E0B0E0A0E04C
:102450000296A11DB11D982F882731119E5FF801AA
:102460004080518062807380D7018D909D90AD90A7
:10247000BC901397481459046A047B040CF045C0BF
:1024800019969C938E9318979C0197FF02C02D5F1D
:102490003F4F3595279535952795319521953109EC
:1024A000F80131872087D70152969C915297961B4D
:1024B00052969C9352972AE030E01F963C932E93BD
:1024C0001E972189822F880F880F820F815F509677
:1024D0008C93509797FF02C052961C92E4960FB6C9
:1024E000F894DEBF0FBECDBFDF91CF911F910F914A
:1024F000FF90EF90DF90CF90BF90AF909F908F9024
:102500007F906F905F904F90089522273327281B6C
:10251000390B19963C932E9318979C0197FF02C094
:102520002D5F3F4F3595279535952795B9CF8F92DC
:102530009F92AF92BF920F931F93CF93DF93CDB72C
:10254000DEB7A1970FB6F894DEBF0FBECDBF19A2BC
:10255000423008F44AE08E010F5D1F4F842E912C0B
:10256000B12CA12CA50194010E94B931E62FB9012B
:10257000CA01EA3044F5E05DD801EE938D01232BCA
:10258000242B252B79F790E080E0109769F0FD016E
:1025900001900020E9F73197AF014A1B5B0BBD01A9
:1025A00083ED95E00E944C0CA1960FB6F894DEBF27
:1025B0000FBECDBFDF91CF911F910F91BF90AF9014
:1025C0009F908F900895E95CD7CF009769F0FC0148
:1025D00001900020E9F73197AF01481B590BBC016E
:1025E00083ED95E00C944C0C90E080E00895CF9240
:1025F000DF92EF92FF92CF93DF936C01092E000CD4
:10260000EE08FF0897FF19C06DE283ED95E00E9488
:102610000B0EEC0166277727CB016C197D098E091B
:102620009F094AE00E9497128C0F9D1FDF91CF9166
:10263000FF90EF90DF90CF9008954AE0C701B60178
:10264000DF91CF91FF90EF90DF90CF900C94971295
:102650000C947131CF92DF92EF92FF926B017C016B
:10266000C114D104E104F10441F00E940931A70131
:1026700096010E9487316B017C01C701B601FF9072
:10268000EF90DF90CF9008952F923F924F925F92FC
:102690006F927F928F929F92AF92BF92CF92DF9272
:1026A000EF92FF920F931F93CF93DF93CDB7DEB7D7
:1026B00066970FB6F894DEBF0FBECDBF6B877C87E1
:1026C0008D879E872F87388B498B5A8BEB8AFC8AA4
:1026D0000D8B1E8B8BA5D40118964D905C90052C0C
:1026E000000C66087708882309F4C8C065E070E02C
:1026F00080E090E00E942A138B019C010250110996
:102700002109310965E070E080E090E00E942A1321
:102710006250710981099109D4018D919D910D90AB
:10272000BC91A02D89839A83AB83BC83F801E05CC4
:10273000FF4FFE83ED83D40114968D919D910D90F2
:10274000BC91A02D8F839887A987BA871B01B0E21F
:102750002B0E311CA60195018F819885A985BA851C
:10276000281B390B4A0B5B0BC301B2010E94EA31F3
:1027700024E6C22ED12CE12CF12CA70196010E9457
:102780008731832E942EA52EBB24A7FCBA94820CED
:10279000931C2B893C894D895E8989819A81AB8103
:1027A000BC81281B390B4A0B5B0BC301B2010E9491
:1027B000EA31A70196010E948731232F342F452F3C
:1027C000552747FD5A95AD80BE80A20EB31E2F85BA
:1027D000388949895A898F819885A985BA85281BA6
:1027E000390B4A0B5B0BC301B2010E94EA31A7010E
:1027F00096010E948731232F342F452F552747FDFF
:102800005A95220E331E2B853C854D855E85898128
:102810009A81AB81BC81281B390B4A0B5B0BC3012E
:10282000B2010E94EA31A70196010E948731BB27BD
:1028300057FDBA95A52F942F832FED81FE818E0F22
:102840009F1F9401A501B10166960FB6F894DEBFF3
:102850000FBECDBFDF91CF911F910F91FF90EF90F1
:10286000DF90CF90BF90AF909F908F907F906F90B0
:102870005F904F903F902F900C94BF0C10E000E0C1
:1028800070E060E049CF2F923F924F925F926F923B
:102890007F928F929F92AF92BF92CF92DF92EF92F0
:1028A000FF920F931F93CF93DF93CDB7DEB7A79718
:1028B0000FB6F894DEBF0FBECDBF2C017E8F6D8F9B
:1028C0004F8FFC01EF57FF4F60810AE1609FB0011D
:1028D000112468537F4E4AE150E0CE0101960E94D8
:1028E0006131D20195968C9190E0B0E0A0E0EE24A9
:1028F000F82E092F1A2FE8A2F9A20AA31BA312018E
:102900001B8E8201005C1F4F1DA30CA39201205A55
:102910003F4F3FA32EA3D10155968C91811103C047
:10292000BB8DB111AAC1D1015496EC91EF3F09F0D2
:1029300062C0F2016081718182819381248135813D
:1029400046815781E8A0F9A00AA11BA12E193F09D1
:10295000400B510B0684F785E02DE330F10519F0AB
:102960003D97369718F43C5F4F4F5F4F0B8D043007
:1029700051F5D2011C96EC91C12CB2E0DB2EE12C7A
:10298000F12CE11106C0C12CAEEFDA2EEE24EA9450
:10299000FE2C6C0D7D1D8E1D9F1DF101E45AFF4F15
:1029A000A080B180C280D380D101DC96ED90FD90F3
:1029B0000D911C91DF97BF8DBF938D8C9E8C0E94D3
:1029C00044130F9051C1BB8DB53061F5D2011C96F7
:1029D000EC91C12CF2E0DF2EE12CF12CE11106C0CC
:1029E000C12CEEEFDE2EEE24EA94FE2C6C197D094C
:1029F0008E099F09D2CFB4E0EB02F0011124E40D5F
:102A0000F51D64AD75AD86AD97ADE45AFF4F2081DD
:102A1000318142815381EB8DE23009F4AACFBB8D25
:102A2000B330A1F2BB8DB13009F0B7CFED8DFE8D83
:102A300080849184092C000CAA08BB08FF8DFF2319
:102A400009F4BFC065E070E080E090E00E942A13C6
:102A50006B017C0102E0C01AD108E108F10865E0D1
:102A600070E080E090E00E942A138B019C010250EC
:102A7000110921093109ACA1BDA12D913D914D91C3
:102A80005C91ED8DFE8D80819181A281B381281BA7
:102A9000390B4A0B5B0BC501B4010E94EA3124E6F5
:102AA00030E040E050E00E948731232F342F452F43
:102AB000552747FD5A95F0E4CF0ED11C7601E20E62
:102AC000F31EAEA1BFA12D913D914D915C91ED8D75
:102AD000FE8D84819581A681B781281B390B4A0B15
:102AE0005B0BC501B4010E94EA3124E630E040E00E
:102AF00050E00E948731232F342F452F552747FD63
:102B00005A95005E1F4F3801620E731ED2011C964B
:102B1000BC91BC8F11E0ED8DFE8D8085918589374C
:102B200091050CF410E0898904E0882309F44EC073
:102B300003E0813009F04AC0812F880F47E0942ECE
:102B4000980E812F90E003965301A81AB90A6701E5
:102B5000C81AD90A00E0292D492DB501C6010E94E5
:102B6000760F292D492DB501C6010E94460F8A898D
:102B70008130C1F5012F10E09DEFC92EDD24DA94DC
:102B8000C01AD10AC801880F991F3BEFA32EBB249E
:102B9000BA94A81AB90AA60CB71C0D5F1F4F4301BF
:102BA000801A910A0C151D05ACF1C7018C0D9D1DF5
:102BB0009501AC01B4010E94BF0CF2E0CF0ED11C14
:102BC000F1CFD12CC12C10E000E055CF010F402FE8
:102BD000B301C7010E94B20E402FB301C7010E948A
:102BE000430DC5CF823009F061C0812F90E09C0178
:102BF0002E5F3F4FB301621B730B6034710550F4BD
:102C0000412F440F495F03968701081B190BC80128
:102C10000E9411091C8D0FEF111101C001E08B8979
:102C2000811163C0000F110B41E0630121E0C21A62
:102C3000D108B601C701801B910B0E94A10C41E095
:102C4000B601C701800F911F0E94A10C8D898111CF
:102C50000BC0B3016E5F7F4F6034710528F443E011
:102C6000C70101970E941109EB8DEF5FEB8FF4E034
:102C70002F0E311CE83009F04ECEA7960FB6F8940F
:102C8000DEBF0FBECDBFDF91CF911F910F91FF909F
:102C9000EF90DF90CF90BF90AF909F908F907F90FC
:102CA0006F905F904F903F902F900895843009F07F
:102CB000B1CF86E0B82EB10E012F10E00C5F1F4F90
:102CC00021E04B2D630132E0C31AD108B601C701E0
:102CD000801B910B0E94890E21E04B2DB601C7018C
:102CE000800F911F0E94890E95CF823009F0AECFE0
:102CF0008301015011099801A70141505109630155
:102D000082E0C81AD108B601C70102970E94BF0C21
:102D10009601A7014E5F5F4FB801C70101960E945F
:102D2000BF0C94CF2F923F924F925F926F927F92FF
:102D30008F929F92AF92BF92CF92DF92EF92FF92CB
:102D40000F931F93CF93DF93CDB7DEB7A4970FB642
:102D5000F894DEBF0FBECDBF4090D9055090DA0584
:102D60006090DB057090DC05452C562C672C772491
:102D700067FC7A94620120912908C2012111E2C105
:102D800057FC0396959587959595879560E870E033
:102D90000E941A3200E81FEF081B190B20E031E0F7
:102DA0005901A81AB90A78012EE1E20EF11C25E0BA
:102DB00030E0A70164E170E0C8010E94BF0CA801E7
:102DC000445C5F4F24E130E065E070E0C7010E94A1
:102DD000BF0C780130E5E30EF11C30E020E0A701E4
:102DE0006FE070E0C801C2960E94BF0CA80148586D
:102DF0005F4F24E130E070E060E0C7010E94BF0C4B
:102E000000581F4F0A151B0571F6C201D7FC019629
:102E10009595879560E470E00E941A3220EC3FEFB0
:102E20007901E81AF90A20EC30E05901A81AB90A28
:102E300000E026E144E16AE070E0C7010E94760FFD
:102E400026E144E16AE070E0C7010E94460F4701B5
:102E500049E1840E911C21E14EE16FE070E0C40174
:102E60000E94760F21E14EE16FE070E0C4010E9404
:102E7000460F50E4E50EF11CEA14FB04C9F6C60146
:102E800060E570E00E941A3200EB1FEF081B190B7F
:102E900020EF30E07901E81AF90A21E04BE165E022
:102EA00070E0C8010E94890E4BE065E070E0C80147
:102EB00005970E941109005B1F4FE016F10669F7A4
:102EC00040E860E270E090E080E00E941109C601F5
:102ED00068E270E00E941A32AC01990F660B770B22
:102EE00088ED9FEFAFEFBFEF841B950BA60BB70BE1
:102EF000052C000C66087708840D951DA61DB71DCE
:102F00002224382E492E5A2EF5E06F2E712C8091F6
:102F100026088F9369ED862E65E0962EA12C70E52C
:102F2000B72EC12CD12C8201710120E032E340E0A8
:102F300050E0C201B1010E94441341E0641A7108DB
:102F400058E2350E411C511C0F9061147104F9F6C2
:102F50008091D9059091DA05A091DB05B091DC054F
:102F60007C018D016AE6F61A0F4F1F4FBC01CD019F
:102F7000705481099109209126082F93A12C32E3E6
:102F8000B32EC12CD12C20E032E340E050E00E946F
:102F900044138091D9059091DA05A091DB05B09199
:102FA000DC057C018D01EAE6FE1A0F4F1F4FBC01C4
:102FB000CD01705481099109209126082F93A12CED
:102FC00040E5B42EC12CD12C20E030E540E050E0AB
:102FD0000E94441302EF17E054E0C52E58E0D52EAE
:102FE0000F900F90D80118968C911897882309F4A8
:102FF00051C04D905D906D907C908091D9059091DD
:10300000DA05A091DB05B091DC05481A590A6A0A75
:103010007B0A452C562C672C772467FC7A94520146
:10302000B0E4AB0EB11CF80184819581A681B78113
:103030004091DD055091DE056091DF057091E0055E
:10304000841B950BA60BB70B892F9A2FAB2FBB2791
:10305000A7FDBA957C01F0E2EF0EF11CBC01635EA6
:103060007F4FF201FD9627E047E0CF010E94460F17
:1030700020E4E216F10430F4C201CF9643E0B70138
:103080000E941109B7016150710921E043E0C501B7
:103090000E94890E075F1F4FC016D10609F0A2CF0C
:1030A00083EE95E09C878B878091EF07882309F456
:1030B000D1C186E696E09E878D8742E050E05C8B2A
:1030C0004B8B8091F007882379F0EB89FC89EE0F18
:1030D000FF1FEC0FFD1F89EE96E094878387AB8975
:1030E000BC891196BC8BAB8B8091F107882379F05A
:1030F000EB89FC89EE0FFF1FEC0FFD1F8CE697E0BC
:1031000094878387EB89FC893196FC8BEB8B9E013E
:10311000255F3F4F3A8F298FF90190E080E00B89BE
:103120001C8901501109801791070CF0BEC101964E
:103130003F019C014B895C892417350709F08FC139
:103140003296F1CF213009F075C057FC0196959564
:10315000879560E470E00E941A320FEC1FEF081BA5
:10316000190B2FEC30E05901A81AB90A4AE06FE0B8
:1031700070E0C8010E94B20E4AE06FE070E0C80142
:103180000E94430D21E047E069E170E0C8010E9420
:10319000890E48016EE1860E911C48E06CE070E0FB
:1031A000C4010E94B20E48E06CE070E0C4010E94CD
:1031B000430D21E04CE064E170E0C4010E94890EFF
:1031C000005C1F4F0A151B0589F6C60164E670E016
:1031D0000E941A3226EA3FEF5901A81AB90A26E3DB
:1031E00031E07901E81AF90A00E025E044E169E1FB
:1031F00070E0C5010E94760F25E044E169E170E0CE
:10320000C5010E94460F21E042E06EE170E0C50179
:1032100002960E94890E21E042E06EE170E0C50155
:1032200042960E94890E84E6A80EB11CAE14BF041B
:10323000D9F646CE57FC0396959587959595879533
:10324000223009F052C060E870E00E941A3228EA89
:103250003FEF7901E81AF90A08E211E0081B190B9F
:1032600043E065E070E0C7010E94430D90E8E90E7D
:10327000F11CE016F106A1F7C201D7FC0196959565
:10328000879560E570E00E941A3220EB3FEF59010C
:10329000A81AB90A20EF30E07901E81AF90A00E02B
:1032A0002CE048E264E170E0C5010E94760F2CE05A
:1032B00048E264E170E0C5010E94460F21E04CE065
:1032C00064E170E0C5010A960E94890E21E04CE09D
:1032D00064E170E0C5014E960E94890EA0E5AA0E39
:1032E000B11CAE14BF04D9F6EBCD233009F05AC09F
:1032F00060E870E00E941A3220E83FEF5901A81AF6
:10330000B90A00E011E0081B190B7501B0E4EB0EDF
:10331000F11C2FE030E0A70169E170E0C5010E94D7
:10332000BF0CE0E8AE0EB11C29E130E0A5016FE072
:1033300070E0C7010E94BF0CA016B10631F7C601AC
:103340006AE570E00E941A322AEB3FEF5901A81A91
:10335000B90A02E211E0081B190B21E04FE06FE00F
:1033600070E0C5010E94890E4AE064E170E0C50189
:1033700005970E9411097501F8E2EF0EF11C44E077
:103380006CE170E0C7010E94B20E44E06CE170E0B5
:10339000C7010E94430D2AE5A20EB11CA016B1067A
:1033A000E1F68ECD60E470E00E941A3225EC3FEF2A
:1033B0005901A81AB90A25E031E07901E81AF90A99
:1033C00000E02BE14FE065E070E0C5010E94760F60
:1033D0002BE14FE065E070E0C5010E94460F41E03F
:1033E00068E070E0C50103960E94A10C41E06FE027
:1033F00070E0C50107960E94A10C30E4A30EB11C39
:10340000AE14BF04E9F6C60168E270E00E941A3209
:1034100008ED1FEF081B190B28EC30E07901E81AC2
:10342000F90A21E041E16FE070E0C8010E94890ED5
:1034300042E06FE070E0C8010E94B20E42E06FE02F
:1034400070E0C8010E94430D085D1F4F0E151F0557
:1034500041F736CD81E090E09C8B8B8B32CE408162
:103460005181D30112966D917C91DA0114968D9061
:103470009D90AD90BC901797DB011496CD90DD9098
:10348000ED90FC901797C814D904EA04FB043CF4AF
:1034900071836083D30113965C934E9312972F5FD1
:1034A0003F4FB2E06B0E711C45CE188E1F8AA4E60A
:1034B0004A2E512C612C712CE98DFA8D219031907E
:1034C000FA8FE98FD1011E96ED91FC911F97EA309A
:1034D000F10509F07BC050968C918370823008F022
:1034E00031C2EF89F88D3196F88FEF8B2B893C89AB
:1034F000E217F30709F710928201109281011092EE
:10350000800110927F0188E79FE00E946E0E8091FB
:10351000F505082E000C990B0E94F71224E049E1F2
:1035200062E070E084E690E00E94460F20912A0855
:1035300030912B0840912C0850912D08A7E1B0E064
:103540000E94A63120E032EE44E050E00E94873134
:1035500037FF02C030E020E0A9012831310514F026
:1035600047E150E001E022E063E070E085E690E0B2
:103570000E94760F81E490E0909382018093810114
:103580001092800110927F0180913B08882309F4FA
:10359000B7C183E79FE00E946E0EA4960FB6F89421
:1035A000DEBF0FBECDBFDF91CF911F910F91FF9076
:1035B000EF90DF90CF90BF90AF909F908F907F90D3
:1035C0006F905F904F903F902F90089533EE2316A9
:1035D00035E0330629F48091040818E0811113C006
:1035E0003197EA30F10570F4E850F54E0C942E3224
:1035F000621C791C021B751C751C751C771C771CC2
:10360000771CA81C10E0D10114968D919D910D900E
:10361000BC91A02D8B8F9C8FAD8FBE8F292F3A2F01
:103620004B2F552747FD5A9522533109410951091E
:10363000A8E2B0E00E94A6312EE130E040E050E088
:103640000E948731F901E05BFF4FFE8BED8B8AE032
:10365000E9EDF5E0DE01119601900D928A95E1F712
:103660002091E1053091E2054D895E89429FC001BC
:10367000439F900D529F900D112464E670E00E94CC
:103680001A326B017A8769878D899E896AE070E0BA
:103690000E941A32062FD1018D919D910D90BC91FF
:1036A000A02D89A39AA3ABA3BCA346010D2C000CAB
:1036B000AA08BB0880912608882309F41CC165E08C
:1036C00070E080E090E00E942A1362507109810945
:1036D000910978A36F8F65E070E080E090E00E9430
:1036E0002A1362507109810991097B01202F000F73
:1036F000330BD6010E943432A30192010E9487311C
:10370000022F12160CF001E08D819E81AF81B885E9
:103710002B8D3C8D4D8D5E8D281B390B4A0B5B0B21
:10372000C501B4010E94EA31A30192010E948731D0
:10373000232F342F452F552747FD5A95B0E2EB0E26
:10374000F11CE20EF31E89819A81AB81BC8129A113
:103750003AA14BA15CA1281B390B4A0B5B0BC5019D
:10376000B4010E94EA31A30192010E948731BB2774
:1037700057FDBA95A52F942F832F2F8D38A1205C4C
:103780003F4F820F931F402FB7010E94430D40917E
:10379000410850914208E6E01E9FB0011124645890
:1037A000704F212FC1010E94C70F40912608BE0112
:1037B0006F5F7F4FC1010E944314F3EE2F16F5E0B7
:1037C0003F0609F48ECE89849A84092C000CAA083D
:1037D000BB08D1012D913D914D915C918091D9050E
:1037E0009091DA05A091DB05B091DC05281B390B1F
:1037F0004A0B5B0BC501B4010E94EA31A30192019F
:103800000E948731C32ED42EE52EFF24E7FCFA94C4
:10381000F10124813581468157818091DD059091A8
:10382000DE05A091DF05B091E005281B390B4A0B9E
:103830005B0BC501B4010E94EA31A30192010E9411
:103840008731232F342F452F552747FD5A95205E6A
:103850003F4F6DED4D895E896403C001659F900DFA
:10386000112464E670E00E941A328901060F171FC6
:10387000C601CB9623E04CE0B8010E94460FD1016F
:1038800052968C91BAE08B02C0011124F101EF57DE
:10389000FF4F308120913D0864E670E0321711F04F
:1038A0006EE170E00E941A32462F6B300CF04AE055
:1038B000B8016F5F7F4FC601CC9601E021E00E9406
:1038C000760F0FCE8091410890914208A091430855
:1038D000B0914408F3E0B695A79597958795FA952A
:1038E000D1F7837011E0180F8ECE16E08CCE17E062
:1038F0008ACE15E088CE18A21F8EF12CE12CF6CED0
:1039000080913608882319F08CE69FE044CE87E644
:103910009FE00E946E0E80913A08882309F43DCE04
:103920006AE00E94FA3180FF38CE8DE290E09093F9
:103930008201809381019093800180937F018EE5C5
:103940009FE029CE23EE221625E0320609F443CE6D
:1039500019E059CEEF92FF920F931F93CF93DF930D
:10396000CDB7DEB7A0970FB6F894DEBF0FBECDBFC0
:103970007C01162FFC01EF57FF4F6083FC01208371
:1039800031834283538380E098E7A0E0B0E08483F2
:103990009583A683B78311861086138612860487C3
:1039A000158617861686108A84E6828B138AE2585B
:1039B000FF4F11821082329610826FEF70E080E02C
:1039C00090E00E942A13F701EE57FF4F6083FAE15F
:1039D0001F9FB001112468537F4E4AE150E0CE0191
:1039E00001960E946131F701E458FF4F8F85988955
:1039F0009183808389859FEFF701948B858B168A4D
:103A000081E0878B2A85108E218F128E838F2B85E4
:103A1000148E258F868F878F2C8510A221A382A3D9
:103A200083A32D8594A325A386A387A32E8590A782
:103A300021A782A783A715A611AA46E050E064E457
:103A400076E0CE014B960E946131FE017B96D70154
:103A5000D4968AE3E80EF11C81918D93AE15BF05D3
:103A6000D9F7A0960FB6F894DEBF0FBECDBFDF9199
:103A7000CF911F910F91FF90EF9008951F920F9299
:103A80000FB60F9211248F939F938091E100909134
:103A9000E100937F9093E10083FF0FC01092E90053
:103AA00091E09093EB001092EC0092E39093ED0084
:103AB00010927E0198E09093F00082FF22C093E084
:103AC0009093E9009091F200992319F09AE3909372
:103AD000E80090916F01992341F090916F0191500E
:103AE00090936F01911101C05D9A90917D0199238E
:103AF00041F090917D01915090937D01911101C011
:103B0000289A84FF18C08091E2008E7E81608093A5
:103B1000E2008091E1008F7E8093E100809170014E
:103B20008E7E8061809370019F918F910F900FBE68
:103B30000F901F90189580FFF7CF8091E2008E7E46
:103B400080618093E2008091E1008E7E8093E100AD
:103B5000809170018E7E8160E5CF1F920F920FB62B
:103B60000F921124CF92DF92EF92FF920F931F9347
:103B70002F933F934F935F936F937F938F939F9375
:103B8000AF93BF93EF93FF93CF93DF93CDB7DEB7A0
:103B90006C97DEBFCDBF1092E9008091E80083FFF3
:103BA00025C068E0CE0145960E94620B82EF8093AB
:103BB000E8008D8987FF39C09091E80090FFFCCF25
:103BC000982F907609F034C19E894F89588D2F899E
:103BD000F88C911131C0803861F580916E0180932D
:103BE000F1001092F1008EEF8093E8006C960FB612
:103BF000F894DEBF0FBECDBFDF91CF91FF91EF9163
:103C0000BF91AF919F918F917F916F915F914F91F4
:103C10003F912F911F910F91FF90EF90DF90CF90E8
:103C20000F900FBE0F901F9018959EEF9093E80095
:103C3000C7CF1092F100D5CF913059F48111D3CF75
:103C40004130510581F680916E018D7F80936E0128
:103C5000CACF933049F48111C6CF4130510519F6CE
:103C600080916E018260F2CF953041F48091E8003E
:103C700080FFFCCF20682093E300B5CF963009F099
:103C8000A9C00B8D1C8D22E01092E90010926C01EE
:103C900010926B01F2122EC010926A01109269010B
:103CA0000E94310B1F8299E09983FA8291E09E83F2
:103CB00090EA98879AEF998720916B0130916C0177
:103CC000275F3F4F3C832B838D831092E900109236
:103CD0006C0110926B0110936A010093690149E035
:103CE00050E0BE016F5F7F4F80E00E940B0B0E948F
:103CF000310B79CF10936A01009369010E94480A41
:103D0000DC0112960D911C910115110509F451C1A8
:103D1000D801ED91FC910480F581E02DBE016B5E30
:103D20007F4FC8010995009709F03EC1F801008551
:103D30001185EACFF3E0FF120EC08F89882309F4C2
:103D400040C0823061F440E867E086E59FE00E9471
:103D50002920811148CF81E28093EB0047CF813049
:103D600029F440E86BE08AE49FE0F1CF833099F7D3
:103D70000E94480ADC011296ED90FC908E010F5FC4
:103D80001F4F6801E114F10479F0D701ED91FC9126
:103D90000680F781E02DB801C7010995080F111DB4
:103DA000F701E084F184EECFD8011C92F601019076
:103DB0000020E9F73197BF016C197D0940E0C60189
:103DC000C6CF64E37FE0FB01449150E080E80E94AD
:103DD0000B0B09CF973009F4BECF983021F481E066
:103DE0008093F10000CF993009F0FDCE837009F087
:103DF000B2CFE2E2F1E081E031E096E321912223CB
:103E000071F08093E9003093EB00DF0111972C9162
:103E10002093EC009093ED008F5F873079F78EE769
:103E20008093EA001092EA008F8980937E01DBCEB6
:103E30008B8D9C8D1092E90010926C0110926B0199
:103E400090936A0180936901898D811192C08E8956
:103E50009D89913A49F4813209F07DCF47E050E0E5
:103E600065E071E080E0B3CF913209F074CF833226
:103E700069F48F89988DB0E0A0E080930101909360
:103E80000201A0930301B0930401ADCE803269F426
:103E90008091E80082FFFCCF67E085E091E00E941E
:103EA000620B8BEF8093E8009ECE823209F09BCEAE
:103EB0008F8980930C01EEEFFFE7859194918B3F02
:103EC0009C4D51F1E0E0F8E08091050190910601F0
:103ED000A0910701B0910801803B9440A105B10574
:103EE000F1F480910C0180FD1AC0EE3F8AE0F807E2
:103EF00089F587E797E791838083809160008093BD
:103F00006D0188E19BE00FB6F894A895809360005E
:103F10000FBE9093600067CEEEEFFAE0D5CF8081C0
:103F200091818737974709F05ECEA8958091600010
:103F300088618093600080916D0180936000EE3F06
:103F40002AE0F20789F08091FE0A9091FF0A91839E
:103F5000808349CE808191818737980751F2909371
:103F6000FF0A8093FE0AC5CF1092FF0A1092FE0A44
:103F70003ACE0E94480ADC0112960D911C9101155F
:103F8000110509F4E8CED801ED91FC910190F08182
:103F9000E02DBE016B5E7F4FC8010995811123CED4
:103FA000F80100851185EBCF181619060CF41BCE0D
:103FB000D2CEF1E0FF12BECE68E37FE004CF1F92C5
:103FC0000F920FB60F9211242F933F938F939F93CD
:103FD000AF93BF938091610190916201A0916301C1
:103FE000B09164013091600123E0230F2D3758F523
:103FF0000196A11DB11D20936001809361019093F2
:104000006201A0936301B093640180916501909176
:104010006601A0916701B09168010196A11DB11DD3
:104020008093650190936601A0936701B093680146
:10403000BF91AF919F918F913F912F910F900FBEA4
:104040000F901F90189526E8230F0296A11DB11D11
:10405000D2CFEF92FF920F931F93CF93DF93F82E5F
:10406000192FE62E042F81E0860F880F0E94DD0AAB
:1040700083E00E94DD0ACF2DD12FEC0EFD2EF11C26
:10408000CE15DF05B9F007FF13C0FE0184910E9431
:10409000DD0A182F80E00E94DD0A8123219681111C
:1040A000EFCFDF91CF911F910F91FF90EF90089587
:1040B0008881EDCF81E0F5CFE3E8F5E0138212824D
:1040C00088EE93E0A0E0B0E084839583A683B78375
:1040D0008CE291E0918380838FEF9FEF95878487B7
:1040E000E3EDF5E0138212828EE391E09183808309
:1040F000158214828AE0E1E1F1E0A9EDB5E00190DA
:104100000D928A95E1F710920408109226081092F9
:104110002708109228081092290810922A08109255
:104120002B0810922C0810922D0810922E08109235
:104130002F08109230081092310810923208109215
:1041400033081092340810923508109236081092F5
:104150003708109238081092390810923A081092D5
:104160003B0810923C0889E080933D0810923E087D
:104170001092400810923F08109241081092420895
:1041800010924308109244080895CF93DF93CDB75F
:10419000DEB7C959D1090FB6F894DEBF0FBECDBF47
:1041A000789484B5826084BD84B5816084BD85B512
:1041B000826085BD85B5816085BD80916E0081601E
:1041C00080936E00109281008091810082608093C4
:1041D00081008091810081608093810080918000C6
:1041E0008160809380008091910082608093910033
:1041F0008091910081608093910080919000816016
:10420000809390008091C10084608093C100809170
:10421000C10082608093C1008091C1008160809361
:10422000C1008091C30081608093C3008091C00071
:1042300082608093C0008091C20081608093C20040
:1042400080917A00846080937A0080917A00826005
:1042500080937A0080917A00816080937A008091C7
:104260007A00806880937A0010927E0110926E012D
:10427000109270018091D70081608093D70080EA0E
:104280008093D80089B5806189BD89B5826089BD78
:1042900009B400FEFDCF61E070E080E090E00E9494
:1042A000940B8091D8008F7C80618093D80080919E
:1042B000E000807F8093E0008091E1008E7E80931B
:1042C000E1008DE08093E200559A209A81EC809382
:1042D0007C0085B1806F85B984B1877E84B984B153
:1042E000876E84B95E9A5F988AB1806D8AB9769A32
:1042F0006E9881B3806F81BB899880B38D7080BBCD
:1043000080E58CBD81E08DBD85E090E00E947B0C56
:104310005F9A85E090E00E947B0C5E985C98ECE3ED
:10432000FCE084918EBD00000DB407FEFDCF3196F8
:104330002CE0E934F207A9F75C9A81E880936400E5
:10434000809165008160809365000E949E0C80E8EA
:104350000E94930C8823A9F05C9885EA8EBD00002A
:104360000DB407FEFDCF5C9A2E982F982D98809162
:10437000640080628093640081E083BF889513BEEF
:10438000FCCF84E00E94930C882309F448C02D9848
:1043900084E80E94930C8823E1F00E94790C88EC59
:1043A00090E00E947B0C2F9882E090E00E94713197
:1043B0008F3F29F06FEF82E090E00E94793184EF27
:1043C00091E00E947B0C2F9A84E80E94930C81114B
:1043D000FBCF84E10E94930C8823E1F00E94790CCA
:1043E00088EC90E00E947B0C2E9882E090E00E9486
:1043F0007131882329F060E082E090E00E947931F9
:1044000084EF91E00E947B0C2E9A84E10E94930C31
:104410008111FBCF88EC90E00E947B0CB2CF0E9410
:10442000790C82E090E00E942813882309F4BFC031
:104430003E9A3F9A81E090E00E942813182F147052
:1044400081FF10C011112E9841EFE42EFF24FA9441
:1044500080E40E94930C882309F4ACC02E9A2F9A12
:104460000E94790C82E390E00E947B0C0E94800CF9
:104470008111F8CF80E18093000110922508E5E0DA
:10448000F8E080E2DF011D928A95E9F71092EF07CC
:104490001092F0071092F1072FB7F8948091610104
:1044A00090916201A0916301B09164012FBF40918E
:1044B0005C0150915D0160915E0170915F0180939C
:1044C0005C0190935D01A0935E01B0935F01841B3A
:1044D000950BA60BB70B85369105A105B10520F00C
:1044E00084E690E0A0E0B0E040915801509159017D
:1044F00060915A0170915B01840F951FA61FB71F31
:104500008093580190935901A0935A01B0935B0195
:104510008091580190915901A0915A01B0915B018D
:104520004097A105B10510F40C94E92D8091570135
:10453000809356010E94800C80935701809141081E
:1045400090914208A0914308B09144080196A11DA2
:10455000B11D8093410890934208A0934308B09303
:1045600044080091250810E00E94800CF801EB5FE0
:10457000F74F80838091250890E001968F719927ED
:1045800080932508E091D705F091D805E930F10531
:1045900008F099C0E253FD4D0C942E3237236F235F
:1045A000E323F0239F24822DE323DC2DDC2D3E9892
:1045B0003F9840CF112331F034E0E316F10411F4B9
:1045C0002E9A2F9881E00E94480900E128E54CE8E6
:1045D0005BE0B70184E190E00E9457090E949E0CC5
:1045E0008FE090E00E947B0C4FEFE41AF40A59E14F
:1045F000E516F10409F02CCF112311F02F9A2D9814
:1046000080E991E00E947B0C0E94790C81E090E0AF
:104610000E94281380FF26CF8AE090E00E94281392
:104620009FEF980F9E3F08F01DCF22E330E03093BC
:1046300082012093810128E330E0309380012093B0
:104640007F010BE010E0682F83ED95E00E940B0ED8
:10465000C8010E9428130F5F1F4F0131110599F700
:104660000E949E0C88EE93E00E947B0CFBCE88E0BB
:104670000E94880C882339F1E1E0F0E0F093D8053E
:10468000E093D705109229081092D9051092DA0507
:104690001092DB051092DC0580E090E3A0E0B0E032
:1046A0008093DD059093DE05A093DF05B093E005D0
:1046B00000E020E033E240E050E06091280883EE23
:1046C00095E00E94AA1C8091580190915901A091F7
:1046D0005A01B0915B014097A109B10911CF6091D6
:1046E000280880916406861781F02091D9053091C1
:1046F000DA054091DB055091DC053D5D4F4F5F4F82
:1047000000E083EE95E00E94AA1C80E09AE4A0E01D
:10471000B0E08093E7059093E805A093E905B09396
:10472000EA0580E090E3A0E0B0E08093DD0590939F
:10473000DE05A093DF05B093E005C0904108D0905E
:104740004208E0904308F0904408C701B6012CE00D
:1047500030E040E050E00E94B93123702F5FF6E076
:104760002F9FB00111246458704FA60183EE95E08D
:104770000E94C70F80E20E94880C882339F0809144
:104780002808882319F081508093280880E40E942B
:10479000880C882339F080912808823018F48F5FC4
:1047A0008093280888E00E94880C882309F48BCF26
:1047B00082E090E09093D8058093D705109240084E
:1047C00010923F0880CF88E00E94880C882309F46B
:1047D0007ACF83E090E09093D8058093D70573CF8C
:1047E00080913F0890914008892B31F488E790E050
:1047F0009093400880933F0880913F089091400833
:1048000001979093400880933F08892B31F088E00E
:104810000E94880C882309F456CF609128082AE169
:10482000629FB00111246C53704F4AE150E0CE01F9
:1048300001960E94613100E020E034E640E050E063
:104840006091280883EE95E00E94AA1C80E090E425
:10485000A0E0B0E08093E7059093E805A093E90518
:10486000B093EA058A8D8093F50510922A0810927C
:104870002B0810922C0810922D0884E290E0A0E002
:10488000B0E080932E0890932F08A0933008B09347
:10489000310880E098ECA0E0B0E08093320890937B
:1048A0003308A0933408B09335081092360810925C
:1048B00037081092390810923A0810924008109266
:1048C0003F0890912908892F880F880F890F865FEC
:1048D0008093380810923B0810923C081092EF0722
:1048E0001092F0071092F1071092FA071092030845
:1048F0001092040880E094E2A0E0B0E08093D90533
:104900009093DA05A093DB05B093DC0580E090E39B
:10491000A0E0B0E08093DD059093DE05A093DF0575
:10492000B093E00584E690E09093E2058093E10582
:10493000A4E0B0E0B093D805A093D705C4CE809191
:104940002608882319F08150809326088091040856
:10495000882319F0815080930408809127088823C8
:1049600009F494C181508093270880912708811110
:1049700018C10091360801118CC080912A089091CD
:104980002B08A0912C08B0912D084091320850912D
:104990003308609134087091350884179507A6078D
:1049A000B7070CF476C020913B08211172C0811525
:1049B000924EA440B1050CF412C48091EF078823F5
:1049C00009F406C48091F007882309F404C4809197
:1049D000F10781115EC082E0C82ED12CE091290838
:1049E000F0E0E351F14F649160933D082091D905C7
:1049F0003091DA054091DB055091DC0534574F4F7B
:104A00005F4F83E88C9D70018D9DF00C112401E0B7
:104A1000C7018A59994F0E94AA1CF701ED52FA4F1B
:104A2000DF01A956BF4F412C10E4512E612C712C8F
:104A30004D925D926D927C921397209129081E965B
:104A400084E1289F802D11248C598C93E15FFE4FC7
:104A500030E0265F3F4F40815181249FC001259F58
:104A6000900D349F900D11246AE070E00E941A327C
:104A700071836083F601E151F84F81E08083809378
:104A80003B088093360885E090E09093D8058093AA
:104A9000D705EFEEF7E0CC57DF4FF983E883C45832
:104AA000D04006E616E0512C412C66246394CC5786
:104AB000DF4FA881B981C458D0407D90CC57DF4FDB
:104AC000B983A883C458D040772009F460C0F801A6
:104AD0008089882311F08150808BD80152968C9167
:104AE00052971E966D917C911F9718160CF44FC427
:104AF0006A30710549F0EAE0F0E01F96FC93EE930E
:104B00001E978EE150968C93D80150968C9181110E
:104B10003EC0CC57DF4FE881F981C458D04031976F
:104B2000108280913608882361F081508093360886
:104B3000811107C080913B08811103C08AE58093F1
:104B40003A0864E670E080E090E00E942A13643145
:104B500071058105910564F48091FA07882309F4B1
:104B6000E9C38091030821E030E0882309F4E4C31D
:104B700080913B08882309F404C4F801EF57FF4FE4
:104B8000908180913D089813FCC360923C08FFEF30
:104B90004F1A5F0A0D571F4F23E04216510409F0C8
:104BA00086CF8091F50518160CF051C0C090E30532
:104BB000D090E405E090E505F090E6058090E705EB
:104BC0009090E805A090E905B090EA05909104085E
:104BD000E2EFF7E024E038E04085442381F14081B2
:104BE00051816281738126013701441A550A660A90
:104BF000770AB301A2014150514F6F4F7F4F4F3F92
:104C00005D4161057105D8F44481558166817781E4
:104C100024013501441A550A660A770AB301A20134
:104C20004150564F6F4F7F4F4F3F534161057105C4
:104C300030F4875E85360CF084E610869EE1399666
:104C40002E173F0749F68093F5059093040880914D
:104C5000F505811129C780913F0890914008892B63
:104C600031F488E790E09093400880933F0880916A
:104C70003F089091400801979093400880933F0827
:104C8000892B09F020CD88E090E0A5CD8091F30537
:104C9000882319F081508093F3056091F10570919C
:104CA000F2056A30710591F52091EB053091EC0524
:104CB0006901032E000CEE08FF088091E305909136
:104CC000E405A091E505B091E6058C0D9D1DAE1D96
:104CD000BF1D8093E3059093E405A093E505B09391
:104CE000E60549E0429FC001439F900D11240E94B8
:104CF0001A327093EC056093EB058091F3058111F6
:104D000038CE1092F2051092F1052FCECB01049708
:104D1000069708F0B4C08091F3056430710549F43A
:104D2000811120C085E090E09093F2058093F10519
:104D30000CC06530710561F4811114C086E090E00B
:104D40009093F2058093F1058AE08093F3050AC001
:104D50006630710509F075C0811104C01092F2052A
:104D60001092F1058091F1059091F2058530910541
:104D700019F0089709F0FDCD3FEEE32E37E0F32E52
:104D800006E616E06701F70181917F01882309F4A7
:104D900051C0D8011E968D919C911F970A9709F4D6
:104DA00049C052968C9118160CF044C08091E305CE
:104DB0009091E405A091E505B091E605F8014081E8
:104DC000518162817381841B950BA60BB70B892FD0
:104DD0009A2FAB2FBB27A7FDBA95AC01BD01435E4F
:104DE0005F4F6F4F7F4F4B3351056105710510F5D4
:104DF0004091E7055091E8056091E9057091EA0559
:104E000084809580A680B780481959096A097B0972
:104E10004150514F6F4F7F4F4F3F5D4161057105CD
:104E200048F42091EF05222311F1181619061A06ED
:104E30001B06FCF00D571F4FC016D10609F0A3CF7B
:104E400094CD6730710529F481118CCF88E090E012
:104E50006BCF6830710509F07FCF811183CF89E076
:104E600090E09093F2058093F1058FE06ECFB7FF4D
:104E7000E1CFB80183EE95E00E941C11DBCF1092C8
:104E8000EC051092EB051092EE051092ED0580E214
:104E90000E94930C182F8823C9F180915F0690918E
:104EA00060069195819591099093EC058093EB05AF
:104EB00081E08093EF0580E80E94930C8823B9F18C
:104EC00020915F063091600631952195310930932C
:104ED000EE052093ED05182F88E00E94880C8823AA
:104EE00081F1B4E04B2E512C5092F2054092F10525
:104EF00085E08093F3058091F1059091F20501978B
:104F0000F1F51092F2051092F10537C080E40E948D
:104F1000930C182F882379F280915F069091600698
:104F20009093EC058093EB051092EF05C4CF80E1E0
:104F30000E94930C882381F220915F0630916006D5
:104F4000C6CF84E00E94880C882341F087E090E07F
:104F50009093F2058093F10588E0CBCF112359F2AD
:104F60008091F1059091F205892B49F466246394B0
:104F7000712C7092F2056092F1051092F405A090E8
:104F8000EB05B090EC05A5010B2C000C660B770B24
:104F90008091E3059091E405A091E505B091E605C7
:104FA000480F591F6A1F7B1F4093E3055093E40588
:104FB0006093E5057093E6058091ED059091EE050F
:104FC000092E000CAA0BBB0B0091E7051091E80518
:104FD0002091E9053091EA05800F911FA21FB31FB0
:104FE000811522E39207A105B1050CF4E3C080937B
:104FF000E7059093E805A093E905B093EA05809151
:10500000E7059091E805A091E905B091EA058130A6
:105010009045A105B1056CF0412CF0E55F2E612CA7
:10502000712C4092E7055092E8056092E905709274
:10503000EA0580913A08882319F0815080933A0854
:105040008091360881115AC08A019B0116522109AC
:105050003109C090D905D090DA05E090DB05F090D9
:10506000DC05C016D106E206F3060CF047C0D901F4
:10507000C8018C199D09AE09BF09E3E0B595A79554
:1050800097958795EA95D1F78115E1E09E07A105EF
:10509000B10524F480E091E0A0E0B0E08C0D9D1D0E
:1050A000AE1DBF1D081719072A073B070CF487C060
:1050B0008093D9059093DA05A093DB05B093DC05C6
:1050C0008091D9059091DA05A091DB05B091DC05BE
:1050D000092F1A2F2B2F332727FD3A9500932E08DF
:1050E00010932F08209330083093310880932A08BA
:1050F00090932B08A0932C08B0932D088091D9058C
:105100009091DA05A091DB05B091DC058C019D0141
:105110001C5321093109945CAF4FBF4F4017510711
:1051200062077307CCF40093E3051093E405209322
:10513000E5053093E6052091F1053091F2052A301E
:10514000310551F4F501B7FE03C0F195E195F10980
:10515000F093EC05E093EB054091E3055091E405F5
:105160006091E5057091E60584179507A607B707D6
:105170000CF0FBCB8093E3059093E405A093E50549
:10518000B093E6058091F1059091F2050A9709F038
:10519000ECCB8091EB059091EC0597FF03C09195C6
:1051A000819591099195819591099093EC05809352
:1051B000EB05DBCB80E092E3A0E0B0E018CF0093FA
:1051C000D9051093DA052093DB053093DC0578CF01
:1051D000D12CC12C03CCCC24C394D12CFFCB109167
:1051E000290816951E5F143008F013E04FEEA42E28
:1051F00047E0B42E53EDE52E55E0F52E7724739459
:105200006EE1662E7AE0872ED5018D915D0199249D
:105210009394900E81116DC066E070E080E090E0A4
:105220000E942A136D5F7F4F8F4F9F4F2091D905AA
:105230003091DA054091DB055091DC0500FD76C028
:105240003B544109510901E02090E3053090E40509
:105250004090E5055090E6052216330644065506B3
:105260000CF000E0C7018D569F4F0E94AA1C60E21F
:1052700070E080E090E00E942A13F701E956FF4FAA
:10528000605D7F4F8F4F9F4F982F872F762F662718
:1052900060837183828393833E966082C0902908E5
:1052A000D12CD6011A962CE431E00E943C322AE03F
:1052B00030E040E050E00E948731F701E15FFE4FAF
:1052C0003183208334968AE090E08C199D09889D73
:1052D000802D1124899D802D1124682D0E94FA3182
:1052E0008083F50131977082809139088F5F8093B8
:1052F0003908092DB3E8EB0EF11C911608F484CFA0
:10530000109336088091320890913308A0913408A8
:10531000B0913508945DAE4FBF4F809332089093A3
:105320003308A0933408B0933508B3CB355B4F4FA7
:105330005F4F89CF30E020E0F801408151816281E8
:105340007381E9E0E29FC001E39F900D11248D522B
:105350009A4FFC01E15EFD4F40835183628373836A
:10536000D80114964D915D916D917C91179734966B
:105370004083518362837383895D9D4FFC0160820A
:10538000F7CB809137088F5F8093370800CC6A3065
:10539000710539F518962D913C9119976901032EE5
:1053A000000CEE08FF088D919D910D90BC91A02DF1
:1053B0008C0D9D1DAE1DBF1DF80180839183A283BE
:1053C000B38349E0429FC001439F900D11240E9486
:1053D0001A327187608780898111D9CB178616862A
:1053E000D6CBCB010497069708F07FC064307105D7
:1053F00009F067C050968C915097811109C0E5E083
:10540000F0E01F96FC93EE931E9785E050968C93E8
:10541000F80186859785059709F0B9CB8081918140
:10542000A281B3814091E3055091E4056091E505C7
:105430007091E605841B950BA60BB70B892F9A2F4D
:10544000AB2FBB27A7FDBA95AC01BD01435E5F4FF3
:105450006F4F7F4F4B3351056105710508F097CBB6
:105460004481558166817781C090E705D090E80539
:10547000E090E905F090EA054C195D096E097F0995
:105480004150514F6F4F7F4F4F3F5D416105710557
:1054900008F07DCBF8012485222321F11816190686
:1054A0001A061B060CF073CB8091F1059091F20562
:1054B0000A9709F46CCB63EE75E0C8010E941C11D9
:1054C00066CB6530710509F048C650968C915097AF
:1054D00081119ECFE6E0F0E01F96FC93EE931E97BD
:1054E0008AE094CFB7FF53CBDFCF4091E3055091D3
:1054F000E4056091E5057091E6058D909D90AD9075
:10550000BC901397CA57DF4F88829982AA82BB82C8
:10551000C658D0408090E7059090E805A090E90536
:10552000B090EA05CA56DF4F88829982AA82BB8270
:10553000C659D0401496AD90BD90CD90DC90179791
:10554000C657DF4FA882B982CA82DB82CA58D040D0
:1055500019961C921E9218971B961C921E921A97CF
:105560001801B0E82B0E311CF1012081222321F01B
:1055700021502083712C55C183ED95E0CE57DF4F2C
:1055800019821882C258D04030E020E02415350539
:1055900009F45FC0D901A151B84FFC90FF2009F474
:1055A00058C07C01B5EAEB0EF11CF701F0801F1426
:1055B0000CF04FC07C01F3E9EF0EF11CD701CD9048
:1055C000DD90ED90FC904A015B018C189D08AE08BF
:1055D000BF0875016401AFEFCA0EA7E2DA1EE11C35
:1055E000F11CBFEFCB16BFE4DB06E104F10488F544
:1055F0007C01E7E9EE0EF11CD701CD90DD90ED9036
:10560000FC90CA56DF4F88809980AA80BB80C6591B
:10561000D0408C189D08AE08BF0875016401AFEF3B
:10562000CA0EA3E1DA1EE11CF11CBFEFCB16B7E2F4
:10563000DB06E104F10468F4CE57DF4FE881F9811D
:10564000C258D0403196CE57DF4FF983E883C25815
:10565000D0402F5F3F4F8D579F4F2330310509F0CA
:1056600095CF4A015B01CA57DF4FC880D980EA80D5
:10567000FB80C658D0408C189D08AE08BF08CE5697
:10568000DF4F88829982AA82BB82C259D0407501BD
:1056900064012FEFC20E27E2D21EE11CF11C3FEF86
:1056A000C3163FE4D306E104F10408F05AC0CA5619
:1056B000DF4FC880D980EA80FB80C659D040C657EA
:1056C000DF4F88819981AA81BB81CA58D040C81A0E
:1056D000D90AEA0AFB0A460157019FEF890E9EE0AC
:1056E000991EA11CB11CAFEF8A16ADE19A06A10468
:1056F000B104B8F5CE57DF4FE881F981C258D040E8
:105700003297ACF5609129082BEF2603B0011124E4
:10571000685D7F4F161617065CF4072E000C880B89
:10572000990B0E942A13672B682B692B09F00BC178
:10573000B4E08B2E912CF801978686868CE0982E0B
:10574000908A1186108613861286809129082AE095
:1057500030E0281B3109822F880F820FD1018C93F2
:1057600009CF40FEF7C0525E6F4F7F4FF9C064E62D
:1057700070E080E090E00E942A13CA57DF4F6883F0
:1057800079838A839B83C658D04020912908A22E12
:10579000B12C26EFA5012403C001259F900D1124F3
:1057A000CC96092E000CAA0BBB0BCA57DF4F2881E1
:1057B00039814A815B81C658D040281739074A078A
:1057C0005B070CF09FCFF801E458FF4F8081918177
:1057D000CE56DF4F288139814A815B81C259D04042
:1057E00012161306140615060CF0ABC044275527F5
:1057F000481B590BD80119965C934E9318971C14AB
:105800001D041E041F041CF4919581959109F80153
:10581000938782878AE090E08A199B09880FD101DB
:105820008C93D8014D915D916D917C9181E0C090F8
:10583000E305D090E405E090E505F090E605C41698
:10584000D506E606F7060CF080E0F8018487868529
:105850009785772009F422C1892B29F48824839421
:10586000912C97868686F801808591856C01092E9A
:10587000000CEE08FF08C40ED51EE61EF71ED80168
:10588000C082D182E282F38282849384092C000C4C
:10589000AA08BB084481558166817781480D591D4E
:1058A0006A1D7B1D44835583668377834091D905A8
:1058B0005091DA056091DB057091DC054A015B01CE
:1058C000FEE39F1AA108B108525C6F4F7F4FC814C6
:1058D000D904EA04FB049CF48D929D92AD92BC9293
:1058E00013971E962D913C912A30310541F497FF74
:1058F00003C0919581959109F80191878087F801FE
:1059000080819181A281B381481759076A077B077B
:105910000CF03DC9408351836283738386859785EC
:105920000A9709F034C98085918597FF03C0919546
:1059300081959109919581959109F80191878087C9
:1059400026C9AC0157CF909129088AE0891BF10143
:10595000808310CE5E51610971094114510461F0D8
:10596000CA56DF4F88819981AA81BB81C659D04030
:10597000965FAF4FBF4F0BC0CA56DF4F88819981EA
:10598000AA81BB81C659D0409A50A109B109813082
:10599000F0E59F07A105B10524F080E090E5A0E0C7
:1059A000B0E0CA57DF4F88809980AA80BB80C65874
:1059B000D040481959096A097B09811522E39207E9
:1059C000A105B10524F480E092E3A0E0B0E0C65761
:1059D000DF4F88809980AA80BB80CA58D040881940
:1059E0009909AA09BB096A017B0177FF07C0CC248A
:1059F000DD247601C41AD50AE60AF70A21E0C216A8
:105A000025E0D206E104F1040CF440C0F801E458AA
:105A1000FF4F20813181141615061606170694F5DE
:105A2000F80131872087F72CAC01BD01B7FF07C013
:105A300044275527BA01481B590B6A0B7B0B413091
:105A400055406105710584F0F801E458FF4F1816C0
:105A500019061A061B06E4F480819181D8011B9671
:105A60009C938E931A97F72C6FE070E080E090E0A3
:105A70000E942A136B5F7F4F8F4F9F4FF10160830E
:105A80007F2CCFCE319521953109CACFF12CCCCFC7
:105A900080819181919581959109E0CF019709F0DD
:105AA000E2CE17861686DFCE80913C08882311F45B
:105AB0000C94632380913F0890914008892B31F426
:105AC0008CE390E09093400880933F0880913F08DA
:105AD0009091400801979093400880933F08892B4C
